:020000040000FA
:100000000C949E070C94C6070C94C6070C94C60764
:100010000C94C6070C94C6070C94C6070C94C6072C
:100020000C94C6070C94C6070C94C6070C94C6071C
:100030000C94C6070C94C6070C94C6070C94C6070C
:100040000C945A1A0C94C6070C94281A0C94021A91
:100050000C94C6070C94C6070C94C6070C94C607EC
:100060000C94A41A0C94C6070000010103000001BF
:100070000002070401F9030003030401F805000668
:10008000070701F90B0005090701F8110007070828
:1000900001F9180006070701F91E0003020300F822
:1000A0001F00030A0401F82300040A0400F82800D2
:1000B00005040500F92B0006050700FA2F000302CE
:1000C0000300FF300004010400FD310002010401BF
:1000D000FF320005080500F9370005070701F93C64
:1000E0000004070701F9400006070700F94600066B
:1000F000070700F94C0006070700F952000507073B
:1001000001F9570005070701F95C0006070700F928
:10011000620005070701F9670006070700F96D008F
:1001200002050301FB6F0003060300FB72000504D8
:100130000600FB750005030601FB770005040601B8
:10014000FB7A0005070600F97F0009090A01F98A10
:100150000008070800F9910006070701F997000653
:10016000070801F99D0006070801F9A30005070724
:1001700001F9A80005070701F9AD0006070801F914
:10018000B30006070801F9B90002070401F9BB0032
:1001900006070700F9C10006070701F9C7000507B0
:1001A0000601F9CC0008070A01F9D3000607080187
:1001B000F9D90006070801F9DF0006070701F9E58C
:1001C0000006080801F9EB0006070701F9F100072E
:1001D000070700F9F80007070700F9FF00070707FE
:1001E00000F9060107070700F90D010A070A00F9DF
:1001F000160107070700F91D0107070700F9240189
:1002000007070700F92B01030A0401F82F0105086D
:100210000500F93401030A0400F83801050305005C
:10022000F93A0106010600003B0103020400F83C14
:100230000106050600FB400105080701F845010617
:10024000050600FB490105080701F84E01060506F1
:1002500000FB520104080400F8560105070701FBE2
:100260005B0105080701F8600102070301F962015B
:1002700003090300F9660105080601F86B0102088D
:100280000301F86D0108050A01FB7201050507016C
:10029000FB760105050701FB7A0105070701FB7FD6
:1002A0000105070701FB840103050401FB86010624
:1002B000050600FB8A0104060400FA8D0105050706
:1002C00001FB910106050600FB950109050900FBEC
:1002D0009B0106050600FB9F0106070600FBA50122
:1002E00006050600FBA901040A0400F8AE01020895
:1002F0000301F9B001040A0400F800AA88DB0051E8
:100300004F94FA8A004725060A5C40C1B34105CAEA
:100310008700E24A30AA4E809052492488844222C3
:1003200024482688E0208F882050E080110844224D
:1003300010E4A5294B806A2222207128842107809D
:1003400071208C0B270010431453E100F438214B2B
:10035000806439294980F82104208400E4A4C94B31
:10036000807128927867008080400500133820F063
:100370003C831D0074844200803C2126954AA5528E
:10038000F9807800103028287C44C6F2493C8A2F36
:1003900000722820822700F268A28A6F00F421E808
:1003A00043C0F421E8420072282E8A27008A28BE22
:1003B0008A2880AAA80820820A27009A4A38A248D8
:1003C0008084210843C086C6C6CAAAB2928B2CAAD2
:1003D0009A68807228A28A2700F228BC82080072DC
:1003E00028A28A2702F228BC924880789111C0D8AE
:1003F0009E00FC408102040800850A1428491E0062
:1004000084912243060C0088964551545518822049
:10041000C490C08309310084912182040800F8103F
:100420004102083F00D24924988210821082C924D8
:1004300092586324F8C8724724688421E94A5E739D
:100440002822701085E94A5E722FA078644E4444D9
:10045000F4A52F0B808421E94A528AA8C24924803E
:1004600084216C6292AAAAFE92929292F4A529002B
:10047000F4A52F00F4A52F4200F4A52F084050004A
:10048000712722704E444694A52F00894518209B61
:100490002D16848240D94214D8894518208400F052
:1004A0004210F82444844442AAAA844424444800C4
:1004B0000103070F1F3F7F0080C0E0F0F8FCFE0043
:1004C000000000003E5B4F5B3E3E6B4F6B3E1C3EB0
:1004D0007C3E1C183C7E3C181C577D571C1C5E7FC4
:1004E0005E1C00183C1800FFE7C3E7FF0018241843
:1004F00000FFE7DBE7FF30483A060E262979292678
:10050000407F050507407F05253F5A3CE73C5A7F61
:100510003E1C1C08081C1C3E7F14227F22145F5FB7
:10052000005F5F06097F017F006689956A606060F1
:10053000606094A2FFA29408047E040810207E202C
:100540001008082A1C08081C2A08081E1010101081
:100550000C1E0C1E0C30383E3830060E3E0E0600C7
:100560000000000000005F00000007000700147F8B
:10057000147F14242A7F2A122313086462364956F2
:1005800020500008070300001C2241000041221CEB
:10059000002A1C7F1C2A08083E08080080703000D2
:1005A0000808080808000060600020100804023EE7
:1005B0005149453E00427F40007249494946214128
:1005C000494D331814127F1027454545393C4A4997
:1005D00049314121110907364949493646494929D6
:1005E0001E000014000000403400000008142241E6
:1005F0001414141414004122140802015909063E6F
:10060000415D594E7C1211127C7F494949363E4169
:100610004141227F4141413E7F494949417F09098A
:1006200009013E414151737F0808087F00417F4125
:10063000002040413F017F081422417F404040405C
:100640007F021C027F7F0408107F3E4141413E7FB4
:10065000090909063E4151215E7F091929462649AB
:1006600049493203017F01033F4040403F1F204082
:10067000201F3F4038403F6314081463030478048C
:10068000036159494D43007F414141020408102054
:10069000004141417F0402010204404040404000CB
:1006A0000307080020545478407F284444383844D5
:1006B000444428384444287F385454541800087E51
:1006C000090218A4A49C787F0804047800447D40A3
:1006D000002040403D007F1028440000417F400042
:1006E0007C047804787C080404783844444438FC5A
:1006F0001824241818242418FC7C080404084854DE
:1007000054542404043F44243C4040207C1C20409A
:10071000201C3C4030403C44281028444C90909091
:100720007C4464544C4400083641000000770000CB
:10073000004136080002010204023C2623263C1E2A
:10074000A1A161123A4040207A385454555921559C
:1007500055794122545478422155547840205455BB
:1007600079400C1E5272123955555559395454540A
:100770005939555454580000457C410002457D428A
:100780000001457C407D1211127DF0282528F07C67
:10079000545545002054547C547C0A097F49324901
:1007A0004949323A4444443A324A4848303A41414D
:1007B000217A3A42402078009DA0A07D3D424242ED
:1007C0003D3D4040403D3C24FF2424487E49436653
:1007D0002B2FFC2F2BFF0929F620C0887E09032030
:1007E000545479410000447D413048484A323840F1
:1007F00040227A007A0A0A727D0D19317D26292954
:100800002F28262929292630484D40203808080855
:100810000808080808382F10C8ACBA2F102834FA76
:1008200000007B000008142A142222142A14085500
:1008300000550055AA55AA55AAFF55FF55FF0000BF
:1008400000FF00101010FF00141414FF001010FF20
:1008500000FF1010F010F0141414FC001414F70032
:10086000FF0000FF00FF1414F404FC141417101F01
:1008700010101F101F1414141F00101010F000008F
:1008800000001F101010101F10101010F0100000AA
:1008900000FF101010101010101010FF10000000BA
:1008A000FF140000FF00FF00001F10170000FC04F1
:1008B000F414141710171414F404F40000FF00F7D4
:1008C00014141414141414F700F714141417141037
:1008D000101F101F141414F4141010F010F0000066
:1008E0001F101F0000001F14000000FC140000F087
:1008F00010F01010FF10FF141414FF141010101F2C
:1009000000000000F010FFFFFFFFFFF0F0F0F0F03C
:10091000FFFFFF0000000000FFFF0F0F0F0F0F3859
:1009200044443844FC4A4A4A347E02020606027EA7
:10093000027E0263554941633844443C04407E20B2
:100940001E2006027E020299A5E7A5991C2A492AC3
:100950001C4C7201724C304A4D4D30304878483052
:10096000BC625A463D3E494949007E0101017E2A4A
:100970002A2A2A2A44445F444440514A444040447D
:100980004A51400000FF0103E080FF000008086BAF
:100990006B083612362436060F090F0600001818A9
:1009A0000000001010003040FF0101001F01011E77
:1009B00000191D1712003C3C3C3C000000000000E8
:1009C000000008000201000003040700000000000E
:1009D000000000DB40A4A62EAF2000A1C8D3004039
:1009E0008DAED580A800006000000000000000006F
:1009F000000000000000E000000000000000000017
:100A00000000000001E00000000000000000000005
:100A100000000001F00000000000000000000000E5
:100A2000000003F0000000000000000000000000D3
:100A30000007F000000000000000000000000000BF
:100A400007F8000000000000000000000000000F98
:100A5000F800000003C0007E000001E0007F0FF8F6
:100A600000000003C000FE000001E000FFEFF800FE
:100A7000000003C000FE000001E000FFFFF80000DE
:100A80000003C000F00000000F007FFE7FC00000E8
:100A900003C000F00000000F003FFE7FF83FF1FBB5
:100AA000CFFCFEF3BC3DEFE01FFE7FFF7FFBFFDFCF
:100AB000FEFEFFBC3DEFE01FC6FFFF7FFBFFDFFE3A
:100AC000FEFFBC3DEFE00FE3C7FE787BC3DE1EF008
:100AD000FFBC3DEF0007FF87FC787BC3DE1EF0F80C
:100AE0003C3DEF0001FFFFF0007BC3C01EF0F03C77
:100AF0003DEF0001F37FE03FFBC3CFFEF0F03C3D54
:100B0000EF0003E33F807FFBC3DFFEF0F03C3DEFEF
:100B10000007E73C00787BC3DE1EF0F03C3DEF00B1
:100B200007FFBE00787BC3DE1EF0F03C3DEF000700
:100B3000FFFE00787BC3DE1EF0F03C3DEF000FFFB0
:100B4000FE007FFBFFDFFEF0F03FFDEFE00FFFFF59
:100B5000007FFBFFDFFEF0F03FFDEFE00FF9FF004D
:100B60003E79F9CF9EF0F01F3DE7E01FF1FF000056
:100B7000000000000000000000001F80FF007FFF59
:100B8000FFFFFFFFFFFFFFFFE01C007F007FFFFF75
:100B9000FFFEB46D888D18E000001F007FFFFFFF8F
:100BA000FE95AD7DB577E000000F007FFFFFFFFEF3
:100BB000A5AD9D8D19E0000006007FFFFFFFFEB58B
:100BC000ADEDB57EE00000000000018000000000F7
:100BD0000000000000038000000000000000000092
:100BE00007C000000000000000000007C000000077
:100BF0000000000000000FC0000000000000000026
:100C0000001FE00000000000000000001FE00000E6
:100C1000000000000000003FE000000000000000B5
:100C200000003FF00000000000000000007FF00026
:100C30000000000000001FF87FF00000000000002E
:100C4000003FFE7FF0000000000000003FFF7FF04B
:100C5000000000000000001FFFFBE000000000009B
:100C600000000FFFF9FFC00000000000000FFFF9B7
:100C7000FFF800000000000007FFF1FFFF00000088
:100C800000000003FC73FFFF80000000000001FE75
:100C90003FFFFF80000000000000FF1E0FFF00006C
:100CA00000000000007FFE1FFC00000000000000AC
:100CB0003FFFFFF8000000000000000FDFFFE00032
:100CC0000000000000001F19FFC00000000000002D
:100CD000003F3CFF00000000000000007E7CF800A8
:100CE000000000000000007FFE7C0000000000000B
:100CF0000000FFFFFC0000000000000000FFFFFEFE
:100D00000000000000000000FFFFFE0000000000E7
:100D1000000001FFEFFE0000000000000001FFCF17
:100D2000FE0000000000000003FF07FE00000000BE
:100D300000000003FC07FE0000000000000003F0BC
:100D400003FE00000000000000018000FE00000023
:100D5000000000000000007E000000000000000015
:100D600000003E000000000000000000000C000039
:100D700000000000078000FC000003C00000000726
:100D80008001FC000003C0000000078001FC00009F
:100D900003C0000000078001E00000001E0000000A
:100DA000078001E00000001E007FE3F79FF9FDE7E8
:100DB000787BDFC0FFF7FFBFFDFDFF787BDFC0FF63
:100DC000F7FFBFFDFDFF787BDFC0F0F787BC3DE19B
:100DD000FF787BDE00F0F787BC3DE1F0787BDE003A
:100DE00000F787803DE1E0787BDE007FF7879FFD9D
:100DF000E1E0787BDE00FFF787BFFDE1E0787BDE96
:100E000000F0F787BC3DE1E0787BDE00F0F787BCBF
:100E10003DE1E0787BDE00F0F787BC3DE1E0787BE8
:100E2000DE00FFF7FFBFFDE1E07FFBDFC0FFF7FF64
:100E3000BFFDE1E07FFBDFC07CF3F39F3DE1E03EDF
:100E40007BCFC00000000000000000000000FFFF9A
:100E5000FFFFFFFFFFFFFFFFC0FFFFFFFFFD68DB9E
:100E6000111A31C0FFFFFFFFFD2B5AFB6AEFC0FFD5
:100E7000FFFFFFFD4B5B3B1A33C0FFFFFFFFFD6B26
:100E80005BDB6AFDC05353443133303620696E69F1
:100E90007469616C697A656421004572726F7220B1
:100EA000696E6974696C697A696E6720535344315D
:100EB0003330362100FA02680020007E000D4672B1
:100EC00075697420656174656E2E00536176696E74
:100ED00067206576656E742E2E2E000000000025BA
:100EE0000028002B0000000000240027002A000436
:100EF00004040404040404020202020202030303C1
:100F000003030301020408102040800102040810BA
:100F1000200102040810202200FF21004E657720E6
:100F2000446F742E2E2E005265616C6C6F63617479
:100F3000696E672E2E2E0000C31B882211241FBE4F
:100F4000CFEFD8E0DEBFCDBF11E0A0E0B1E0E0E23E
:100F5000FCE402C005900D92AC3AB107D9F723E04A
:100F6000ACEAB1E001C01D92AD37B207E1F717E07E
:100F7000CDE9D7E004C02197FE010E94FF23CC39C0
:100F8000D107C9F70E946C1C0C9403260C94000036
:100F9000CF93DF9340911A0350911B0360911C0380
:100FA00070911D0380911E0390911F03A091200357
:100FB000B09121032FB7481759076A077B0701F53E
:100FC000F89480916D0290916E02A0916F02B091A1
:100FD00070022FBF80931A0390931B03A0931C03EE
:100FE000B0931D030196A11DB11D80931E03909324
:100FF0001F03A0932003B0932103DF91CF910895A5
:10100000F89480916D0290916E02A0916F02B09160
:1010100070022FBF80931A0390931B03A0931C03AD
:10102000B0931D0340911E0350911F036091200354
:1010300070912103481759076A077B07F0F620E0F3
:1010400061E070E0A3E0B0E0C2E0D0E08091220374
:10105000281708F063C034E0239FC0011124E091F9
:101060003403F0913503E80FF91F42815381411594
:101070005105A1F430813D3718F43F5F30830CC037
:1010800031813F5F31834091340350913503840FA8
:10109000951FFC01D383C2832F5FD8CF4130510508
:1010A00091F43081333010F03150E8CF318131503C
:1010B00031834091340350913503840F951FFC0117
:1010C000B383A283E9CF4230510599F431813D3396
:1010D00018F43F5F3183E0CF30813150308340914D
:1010E000340350913503840F951FFC017383628391
:1010F000D3CF4330510581F63181333010F0315078
:10110000E9CF30813F5F3083409134035091350304
:10111000840F951FFC0113821282BECF10921A0316
:1011200010921B0310921C0310921D0310921E03B9
:1011300010921F0310922003109221035ECFE1E76B
:10114000F2E0A089B18982E08C93A485B5851C92D8
:10115000A685B7858FEC8C93108EA489B58986E01F
:101160008C93A289B3898C9180618C93A289B38975
:101170008C9188608C93A289B3898C9180688C93C0
:101180000288F389E02D80818F7D8083089590E02F
:10119000FC01ED5FF04F24918151914FFC0184914E
:1011A000882399F090E0880F991FFC01EB51F14FD3
:1011B000A591B491FC01E552F14F859194918FB7BF
:1011C000F894EC91E22BEC938FBF08950895089565
:1011D0000895AF92BF92CF92DF92EF92FF920F935A
:1011E0001F93CF93DF936C017B018B01040F151FBD
:1011F000EB015E01AE18BF08C017D10759F0699125
:10120000D601ED91FC910190F081E02DC601099588
:10121000892B79F7C501DF91CF911F910F91FF9035
:10122000EF90DF90CF90BF90AF900895FC01538D69
:10123000448D252F30E0842F90E0821B930B5417B0
:1012400010F0CF96089501970895FC01918D828D3D
:10125000981761F0A28DAE0FBF2FB11D5D968C91D6
:10126000928D9F5F9F73928F90E008958FEF9FEF15
:101270000895FC01918D828D981731F0828DE80FD1
:10128000F11D858D90E008958FEF9FEF0895FC018B
:10129000918D228D892F90E0805C9F4F821B910958
:1012A0008F739927089581E792E00E94470921E012
:1012B000892B09F420E0822F089580E090E0892BAB
:1012C00029F00E94530981110C9400000895FC013B
:1012D000A48DA80FB92FB11DA35ABF4F2C91848D97
:1012E00090E001968F739927848FA689B7892C93F4
:1012F000A089B1898C91837080648C93938D848D47
:10130000981306C00288F389E02D80818F7D808349
:101310000895EF92FF920F931F93CF93DF93EC0109
:1013200081E0888F9B8D8C8D98131AC0E889F9898C
:10133000808185FF15C09FB7F894EE89FF8960838F
:10134000E889F98980818370806480839FBF81E010
:1013500090E0DF91CF911F910F91FF90EF90089552
:10136000F62E0B8D10E00F5F1F4F0F731127E02E2D
:101370008C8D8E110CC00FB607FCFACFE889F98965
:10138000808185FFF5CFCE010E946709F1CFEB8DFB
:10139000EC0FFD2FF11DE35AFF4FF0829FB7F89439
:1013A0000B8FEA89FB8980818062CFCFCF93DF9357
:1013B000EC01888D8823B9F0AA89BB89E889F9896D
:1013C0008C9185FD03C0808186FD0DC00FB607FCA2
:1013D000F7CF8C9185FFF2CF808185FFEDCFCE01D5
:1013E0000E946709E9CFDF91CF91089590E0FC0159
:1013F000E154F64F2491FC01ED5FF04F3491FC0174
:10140000E151F14FE491EE23C9F0222339F023306A
:1014100001F1A8F4213019F1223029F1F0E0EE0FAA
:10142000FF1FE552F14FA591B4918FB7F894EC915D
:10143000611126C030953E233C938FBF089527301D
:10144000A9F02830C9F0243049F7809180008F7DC1
:1014500003C0809180008F7780938000DFCF84B5B8
:101460008F7784BDDBCF84B58F7DFBCF8091B000BB
:101470008F778093B000D2CF8091B0008F7DF9CF6D
:101480003E2BDACF3FB7F89480915D0290915E02D7
:10149000A0915F02B091600226B5A89B05C02F3FC6
:1014A00019F00196A11DB11D3FBFBA2FA92F982F8A
:1014B0008827BC01CD01620F711D811D911D42E085
:1014C000660F771F881F991F4A95D1F708958F924D
:1014D0009F92AF92BF92CF92DF92EF92FF924B0119
:1014E0005C010E94420A6B017C010E94420A6C1955
:1014F0007D098E099F09683E734081059105A8F317
:1015000021E0821A9108A108B10888EEC80E83E094
:10151000D81EE11CF11C81149104A104B10429F727
:10152000FF90EF90DF90CF90BF90AF909F908F9003
:10153000089540912A0350912B0360912C037091E0
:101540002D0380912E0390912F03A0913003B09131
:1015500031032FB7481759076A077B0701F5F8943D
:1015600080916D0290916E02A0916F02B091700215
:101570002FBF80932A0390932B03A0932C03B09347
:101580002D038C599F4FAF4FBF4F80932E039093E5
:101590002F03A0933003B093310384E00895F894AF
:1015A00080916D0290916E02A0916F02B0917002D5
:1015B0002FBF80932A0390932B03A0932C03B09307
:1015C0002D0340912E0350912F03609130037091B1
:1015D0003103481759076A077B07F8F610922A0368
:1015E00010922B0310922C0310922D0310922E03B5
:1015F00010922F0310923003109231035F9A2898B3
:101600004D9B03C08091260308954E990DC062E35F
:1016100070E080E090E00E94670A289A5F984D9BF6
:1016200006C08091280308958091270308954E9B5A
:1016300003C080912903089562E370E080E090E0A8
:101640000E94670AAACF0895FC016370668B8481AB
:10165000958126813781613039F0633029F0918797
:1016600080873387228708953187208793878287F1
:1016700008952F923F924F925F926F927F928F9236
:101680009F92AF92BF92CF92DF92EF92FF920F9311
:101690001F93CF93DF93CDB7DEB76A970FB6F89459
:1016A000DEBF0FBECDBF9A8F898F7A8369834A01CF
:1016B000D22E18870F833701BC2CDC0159962D914F
:1016C0003C915A972115310509F015C118968D9155
:1016D0009C911997681779070CF0D7C11A968D91CC
:1016E0009C91481759070CF0D0C14C2C512CB6E0F6
:1016F000CB9E600D711D11247C876B871616170613
:101700000CF0C3C1EA2DF0E0FA87E98793E0EE0F11
:10171000FF1F9A95E1F7F88BEF87CF01840F951F94
:10172000181619060CF0B1C1A98DBA8D58968C9176
:10173000811104C0BFEABD1508F4D394A98DBA8DF8
:10174000ED91FC9111970284F385E02DCD0109956F
:10175000B5E0DB9EC0011124E981FA81FC83EB83B3
:10176000312C212C9C0121543B4F388F2F8B4A2D3B
:1017700050E05E8B4D8BEF89F88DE20DF31D4491A7
:101780009E828D82D12CC12C69817A81620D731D5C
:101790007A8B698B842F90E09C8B8B8BE98DFA8DF3
:1017A000A081B18140FF82C0F1E0BF126FC0AF12D3
:1017B0006DC01C96ED91FC912F813885A4014C0DD4
:1017C0005D1D69897A89898D9A8D0995EB89FC89D6
:1017D000F595E7954E2F5FEFC51AD50A6D817E818D
:1017E0008D899E89680F791F7E836D8398E0C91665
:1017F000D10481F6AFEF2A1A3A0AEB81FC81E40D9D
:10180000F51DFC83EB83F5E02F16310409F0B3CF0F
:101810002F81388526153705B9F0A98DBA8DED9140
:10182000FC91B1E0BB1257C0AB1255C069817A81FF
:101830006B5F7F4F0088F189E02D830128E030E065
:10184000A401898D9A8D0995A98DBA8DED91FC9190
:1018500011970688F789E02DCD016A960FB6F894A6
:10186000DEBF0FBECDBFDF91CF911F910F91FF90D3
:10187000EF90DF90CF90BF90AF909F908F907F9030
:101880006F905F904F903F902F9009941E96ED912E
:10189000FC91EF80F88409851A8592014D815E8163
:1018A0006B817C81898D9A8D099590CF2F813885A8
:1018B0002615370509F48ACF31E0B31207C0A31209
:1018C00005C01C96ED91FC91930178CF1E96ED9189
:1018D000FC917301E0CF6B857C85641975090684E2
:1018E000F785E02D73010F8518899201A401898D78
:1018F0009A8D0995A9CFF901349694913297459123
:101900005491D91AB7E0DB9E400D511D1124F90105
:10191000259134913C8B2B8BFA0125903490FA0160
:101920003296749031963491398B32966490319618
:10193000449041E04C1518F04A1508F07FC0662D20
:10194000062C000C770B7C836B83842D042C000CFD
:10195000990B9E838D83A98DBA8DED91FC91119782
:101960000284F385E02DCD010995512CD12CC12C99
:10197000EA2DF0E0FA87E9872B2D30E03C872B87B2
:10198000A401440D511D47FC5A95588F4F8B698116
:101990007A81660D711D67FC7A957E876D877989DE
:1019A000C71608F051CF2C2D30E04D815E81420FDB
:1019B000531FA985BA854A9FC0014B9F900D5A9F1E
:1019C000900D1124FC01E80DF91DF88BEF87852D92
:1019D000612C4F89588D420F531F5E8B4D8B6714BE
:1019E00008F050C044244394480E877041F4C1016C
:1019F0000196EB89FC89E20DF31DD4901C01D7FE02
:101A000019C0A98DBA8DED91FC91662D70E0B1E001
:101A1000BB1219C0AB1217C02D853E85620F731F14
:101A20000484F585E02D2F8138854D895E89898D67
:101A30009A8D0995DD0C6394842DD1CF1E821D8271
:101A40001C821B8288CF4B815C81640F751FAB8524
:101A5000BC856A9FC0016B9F900D7A9F900D1124E9
:101A600069817A81680F791F0684F785E02DEF8000
:101A7000F88409851A859D014F855889898D9A8D2D
:101A80000995D8CF570CC3948ACF6A960FB6F894AD
:101A9000DEBF0FBECDBFDF91CF911F910F91FF90A1
:101AA000EF90DF90CF90BF90AF909F908F907F90FE
:101AB0006F905F904F903F902F9008958F929F92DC
:101AC000AF92CF92EF92FF920F931F93CF93DF933A
:101AD000EC01262F898D9A8D009709F051C06A304C
:101AE000D1F41D861C868D8948E0849F90011124C5
:101AF0008E859F85820F931F9F878E8781E090E060
:101B0000DF91CF911F910F91FF90EF90CF90AF9009
:101B10009F908F9008956D3089F3CC88AD888F8920
:101B20008823C1F08C859D8536E0C39E800D911D74
:101B30001124488559854817590764F44E855F85F7
:101B40001D861C8638E0A39EC0011124840F951FBA
:101B50009F878E87EA88FB88088919894E855F856B
:101B60006C857D85CE010E94390B2C898C859D85E5
:101B700046E0249F800D911D11249D878C87BECF48
:101B80006A3069F41D861C86FC013896E4912D8923
:101B90008E859F85E29F800D911D1124ADCF6D3004
:101BA00009F4ACCFFC0134963491631708F4A6CF46
:101BB0003296E491E61708F4A1CFFC0132968590A5
:101BC0009490462F431B342F47E0349F800C911C88
:101BD0001124F401329634913196E4913323A9F122
:101BE000EE2399F1CC88F4013596E491AD884F89C4
:101BF000442301F10E2E000CFF0BE30FF11DCE9ECE
:101C0000A001CF9E500D11246C857D85460F571F76
:101C100068857985641775076CF44E855F851D8628
:101C20001C86FC013896E491AE9E400D511D112496
:101C30005F874E87EA88FB88088919894E855F850A
:101C40006C857D85CE010E94390BF4013496E491B8
:101C50002C898C859D85E29F800D911D11248DCF4F
:101C60006F927F928F929F92AF92BF92CF92DF92AC
:101C7000EF92FF920F931F93CF93DF93EC016B01D1
:101C80005A0139014801E881F9810284F385E02D88
:101C90000995E881F9810288F389E02D8701930194
:101CA000A501B601CE010995A501480D591D415068
:101CB0005109E881F9810288F389E02D9301B60189
:101CC000CE010995E881F9810088F189E02D940120
:101CD000A501B601CE010995C60CD71CB60161500D
:101CE0007109E881F9810088F189E02D9401A5014D
:101CF000CE010995E881F9810688F789E02DCE01AA
:101D0000DF91CF911F910F91FF90EF90DF90CF90D7
:101D1000BF90AF909F908F907F906F9009946F923B
:101D20007F928F929F92AF92BF92CF92DF92EF926B
:101D3000FF920F931F93CF93DF935C01EB016A0136
:101D4000490138018701DC01ED91FC9162177307AD
:101D500019F5641675062CF0962D872D3A01C92EBB
:101D6000D82E9601261937092F5F3F4F048CF58D29
:101D7000E02DA301BE01C5010995DF91CF911F910F
:101D80000F91FF90EF90DF90CF90BF90AF909F901A
:101D90008F907F906F9008954615570591F4261700
:101DA000370724F0892D4B01C22FD82F9E01281907
:101DB00039092F5F3F4F068CF78DE02DA601B40146
:101DC000DACF0284F385E02D0995D501ED91FC91E0
:101DD0000488F589E02D83019401A601BE01C501A7
:101DE0000995D501ED91FC910688F789E02DC50193
:101DF000DF91CF911F910F91FF90EF90DF90CF90E7
:101E0000BF90AF909F908F907F906F900994EF92CA
:101E1000FF920F931F93DC011A960D911C911B9753
:101E200018962D913C911997ED91FC9100A0F1A18C
:101E3000E02D7B0150E040E070E060E009951F91EB
:101E40000F91FF90EF9008954F925F926F927F9263
:101E50008F929F92AF92BF92CF92DF92EF92FF92BA
:101E60000F931F93CF93DF936C012B015A0139011C
:101E70004801DC01ED91FC910284F385E02D099588
:101E8000E201640C751CD601ED91FC91C615D705D5
:101E90005CF40088F189E02D87019401A501BE0161
:101EA000C60109952196EFCF0688F789E02DC60176
:101EB000DF91CF911F910F91FF90EF90DF90CF9026
:101EC000BF90AF909F908F907F906F905F904F905A
:101ED00009948F929F92AF92BF92CF92DF92EF922E
:101EE000FF920F931F93CF93DF93EC015B014A01A5
:101EF0006901E881F9810284F385E02D0995950156
:101F00002C0D3D1D21503109E881F9810488F589A6
:101F1000E02D78018401A401B501CE010995E88185
:101F2000F9810688F789E02DCE01DF91CF911F91CD
:101F30000F91FF90EF90DF90CF90BF90AF909F9068
:101F40008F9009948F929F92AF92BF92CF92DF921F
:101F5000EF92FF920F931F93CF93DF93EC015B01FE
:101F60004A0169017801E881F9810284F385E02D55
:101F70000995C80CD91C860101501109E881F98125
:101F80000488F589E02D9501A401B501CE010995DC
:101F9000E881F9810688F789E02DCE01DF91CF91A4
:101FA0001F910F91FF90EF90DF90CF90BF90AF9077
:101FB0009F908F900994EF92FF920F931F93DC01F3
:101FC000ED91FC9100A0F1A1E02D09951F910F91D9
:101FD000FF90EF9008950F931F93DC01ED91FC911A
:101FE000068CF78DE02D09951F910F9108950F93A1
:101FF0001F93DC01ED91FC91048CF58DE02D09958A
:102000001F910F910895DC01ED91FC910084F18501
:10201000E02D09943F924F925F926F927F928F9240
:102020009F92AF92BF92CF92DF92EF92FF920F9367
:102030001F93CF93DF935C017B014A016901390152
:1020400087E0680E711C93E0759467949A95E1F7A8
:102050002B01400E511E10E000E0312CD0E0C0E01A
:10206000CE0187709927330C892B59F4FE0183E048
:10207000F595E7958A95E1F7E00FF11FE80DF91D59
:10208000349037FE0AC021E030E0A701B5016C0FA3
:102090007D1F89E393E00E9403102196CC16DD0694
:1020A000F9F68FEFE81AF80A060D171DE414F50487
:1020B000A9F6DF91CF911F910F91FF90EF90DF90E4
:1020C000CF90BF90AF909F908F907F906F905F90D8
:1020D0004F903F9008952F923F924F925F926F9250
:1020E0007F928F929F92AF92BF92CF92DF92EF92A8
:1020F000FF920F931F93CF93DF9300D000D000D0B7
:10210000CDB7DEB73C016A013E832D83FC82EB82B2
:102110005801A41AB50AB7FE03C0B194A194B1083E
:102120008D809E80861A970A97FE03C091948194B1
:1021300091088A149B045CF0902F812F0D811E81E1
:102140009D838E839C2D8D2D6B01692F782F0C150F
:102150001D055CF09D818E817E836D83692F782FB4
:10216000902F812F8601C92ED82E1601201A310AF0
:102170002B012D813E81421A530A57FE03C0519410
:1021800041945108710137FE03C03FEFE31AF30A8F
:10219000F594E7948D819E81861797075CF5A1E001
:1021A000B0E0BA83A983C016D1064CF1D301ED91FA
:1021B000FC910484F585E02D2B813C81A8016D8183
:1021C0007E818A149B041CF04D815E81B801C3019D
:1021D0000995E418F508F7FE0AC02D813E81898132
:1021E0009A81280F391F3E832D83E20CF31C0F5F69
:1021F0001F4FD9CF2FEF3FEF3A832983D4CF2696B5
:102200000FB6F894DEBF0FBECDBFDF91CF911F9107
:102210000F91FF90EF90DF90CF90BF90AF909F9085
:102220008F907F906F905F904F903F902F90089588
:10223000EF92FF920F931F93CF93DF93EC01EC800B
:10224000FD806E157F050CF070C057FF04C0240F91
:10225000351F50E040E08E819F81FA01E20FF31FAD
:102260008E179F071CF49C01241B350B12161306B6
:102270000CF05BC0922F842F8695869586958E9D57
:10228000D0018F9DB00D11246A0F7B1FAF8DB8A1B7
:10229000A60FB71F477049F188E0841B482F682FAD
:1022A00070E0FB01E954FB4FE491281708F063C08C
:1022B000621B71092FEF30E002C0359527956A95B2
:1022C000E2F7E2230130110539F0B0F102301105D7
:1022D00061F58C91E82702C08C91E82BEC93941760
:1022E00020F12C813D81A20FB31FE92FE41BE830C0
:1022F00078F00230110521F58E2F9C9190959C93DA
:102300002C813D81A20FB31F88508830B0F7E77051
:10231000EE2359F0F0E0E155FB4FE4910130110557
:10232000F9F010F10230110519F1DF91CF911F91F1
:102330000F91FF90EF900895E0958C91E823CECF18
:1023400081E00115110509F480E081959E2F8C93A1
:102350002C813D81A20FB31F98509830C0F7D7CF82
:102360008C91E82BEC93E1CFE0958C91E823FACFA8
:102370008C91E827F7CF0130110509F4ADCFE0F2D9
:102380000230110509F4A5CFAE0DBF1DAECF0F93DE
:102390001F93CF93DF9377FF04C0260F371F70E0A2
:1023A00060E0DC011496CD91DC91FB01E20FF31F9C
:1023B000CE17DF071CF49E01261B370B12161306DF
:1023C0004CF5FA0157FD3796A3E0F595E795AA95E8
:1023D000E1F7EC9FD001ED9FB00DFC9FB00D1124F3
:1023E0006A0F7B1FDC015F96ED91FC91E60FF71FF2
:1023F0004770552781E090E001C0880F4A95EAF7C1
:10240000482F0130110559F0A8F02E0F3F1F023060
:102410001105E1F0DF91CF911F910F9108952E0FDB
:102420003F1FE217F307B1F38191DF011197842B6E
:102430008C93F7CF80952E0F3F1FE217F30751F3D0
:102440009191DF01119798239C93F7CFE217F3073F
:1024500009F38191DF01119784278C93F7CF0F93B4
:102460001F93FA01DC0156964C9156974230E9F0E1
:102470004330A1F1413061F514964D915C91DA0140
:10248000AE1BBF0BFD01E21BF30B77FD0BC0DC01A4
:1024900016964D915C916417750724F4AB01BF014A
:1024A0000E94C7111F910F91089514964D915C9150
:1024B000DA01A61BB70BBD0161507109DC0116964C
:1024C0004D915C91DA01AE1BBF0BFD01E21BF30BDA
:1024D00077FDE8CFAF010E941811E4CF16964D9119
:1024E0005C91DA01A61BB70BBD0161507109CDCF1C
:1024F0000F931F93FA01DC0156964C915697423088
:10250000A9F0433091F1413019F514964D915C9149
:10251000DA01AE1BBF0BFD013197F7FD04C0AB0123
:10252000BF010E9418111F910F91089514964D91AB
:102530005C91DA01A61BB70BBD01DC0116964D912B
:102540005C91DA01AE1BBF0BFD013197621B730B6F
:10255000F7FDE9CFDC0116964D915C91E417F50784
:1025600014F7AF010E94C711DECF16964D915C9112
:10257000DA01A61BB70BBD01621B730BCECFFC01AA
:1025800077FD64C080859185681779070CF05EC07F
:1025900057FD5CC082859385481759070CF056C0DB
:1025A00086898230B1F0833029F1813041F4848111
:1025B0009581841B950BAB01BC01615071092130E1
:1025C000310509F108F443C02230310509F463C034
:1025D000089584819581DC01A61BB70BBD01615074
:1025E000710986819781DC01A41BB50BAD014150B7
:1025F0005109E5CF86819781861B970BBA01AC0103
:1026000041505109DCCFCA0157FD0796A3E09595CB
:102610008795AA95E1F7A481B5818A9F90018B9F48
:10262000300D9A9F300D1124620F731F078CF0A19B
:10263000E02DE60FF71F4770552721E030E001C07D
:10264000220F4A95EAF78081822B80830895CA0180
:1026500057FD079633E0959587953A95E1F7A48164
:10266000B5818A9F90018B9F300D9A9F300D112468
:10267000620F731F078CF0A1E02DE60FF71F477064
:10268000552781E090E001C0880F4A95EAF78095D0
:1026900090818923DACFCA0157FD079623E09595EB
:1026A00087952A95E1F7A481B5818A9F90018B9F38
:1026B000300D9A9F300D1124620F731F078CF0A10B
:1026C000E02DE60FF71F4770552721E030E001C0ED
:1026D000220F4A95EAF780818227B7CF08958EBDF1
:1026E00000000DB407FEFDCF8EB508958CBD9DBDD5
:1026F000089520911202260F3327331F213231050E
:10270000ECF420913602FC0190E080E0243069F086
:1027100082E00895A09112022191AC014E505E4FCB
:10272000A40FB52FB11D2C930196861798F38091B5
:102730001202680F6093120280E0089581E008950C
:102740001092360281E0809338021092370261E0E5
:1027500082E10E94F60961E083E10E94F609E9EB5B
:10276000F0E080818E7F808380818D7F808388E40C
:102770008093B80085E48093BC000895CF93DF93E5
:1027800091E09093F1018823B9F0C091B800D09105
:10279000BA008091BC008A7B8093BC0060E082E13B
:1027A0000E94F60960E083E10E94F6090E94A013EE
:1027B000D093BA00C093B800DF91CF910895E09113
:1027C000670280916602E81730F4F0E0E453FE4FB0
:1027D000808190E008958FEF9FEF089590916702B8
:1027E000809166022FEF3FEF981748F4E92FF0E051
:1027F000E453FE4F208130E09F5F90936702C90150
:1028000008958091660290916702891B990B089543
:10281000CF92DF92EF92FF920F931F93CF93DF93AC
:102820007C01CB018A0120916C02222389F0EB010B
:102830006B01C40ED51ECC15DD0569F06991D70179
:10284000ED91FC910190F081E02DC7010995F3CF46
:10285000642F0E947913C801DF91CF911F910F91CE
:10286000FF90EF90DF90CF900895CF93DF931F926A
:10287000CDB7DEB7698320916C022223F9F0209155
:102880006902203258F021E030E0FC0133832283DA
:1028900090E080E00F90DF91CF91089580916A02DF
:1028A000E82FF0E0E455FE4F998190838F5F80938D
:1028B0006A028093690281E090E0ECCF61E0CE0192
:1028C00001960E947913F7CFCF92DF92EF92FF9299
:1028D0000F931F93CF93DF93D091690281E0D132A0
:1028E00008F09CC0C0916B020E94420A6B017C01FF
:1028F0008091360281116CC082E08093360281E0C3
:10290000809338028FEF8093350210925A02D09351
:102910005902ACEAB1E0E9E3F2E080E0D8138DC0FF
:1029200010925B0280915B02CC0FC82BC0935B02BC
:1029300080913702813009F084C0109237020E94E2
:10294000420A6B017C0180915B028093BB00809105
:10295000ED019091EE01A091EF01B091F001892B72
:102960008A2B8B2BA1F00E94420A0091ED0110915D
:10297000EE012091EF013091F0016C197D098E0973
:102980009F09061717072807390708F442C08091E6
:10299000BC0083FDD8CF85EC8093BC000E94420A26
:1029A0006B017C0180913602823009F44CC0809129
:1029B00035028F3F09F469C080913502803209F4F5
:1029C00066C080913502803309F463C084E026C07C
:1029D0008091ED019091EE01A091EF01B091F00195
:1029E000892B8A2B8B2B09F483CF0E94420A0091FA
:1029F000ED011091EE012091EF013091F0016C1981
:102A00007D098E099F09061717072807390708F05F
:102A10006FCF8091EC010E94BE1385E010926A0294
:102A20001092690210926C02DF91CF911F910F9169
:102A3000FF90EF90DF90CF9008959D9191938F5FDD
:102A40006DCF85EEA9CF8091ED019091EE01A0911F
:102A5000EF01B091F001892B8A2B8B2B09F4A2CFC7
:102A60000E94420A0091ED011091EE012091EF01C8
:102A70003091F0016C197D098E099F09061717071F
:102A80002807390708F08ECFC4CF80E0C7CF82E097
:102A9000C5CF83E0C3CFEF92FF920F931F93CF93E5
:102AA000DF937C01C62F80915603909157030097C6
:102AB00009F459C020915A0331E030936C022093FD
:102AC0006B0210926A0210926902DC01ED91FC9196
:102AD0000190F081E02D60E009958701EE24E394F8
:102AE000F12CD1E0C1508091560390915703CF3F14
:102AF00091F1B0E2EB16F104D8F00E9464148091D9
:102B000056039091570320915A03D0936C0220935F
:102B10006B0210926A0210926902DC01ED91FC9145
:102B20000190F081E02D60E00995EE24E394F12C12
:102B30008091560390915703F8016491DC01ED9167
:102B4000FC910190F081E02D0995BFEFEB1AFB0A93
:102B50000F5F1F4FC7CFDF91CF911F910F91FF9054
:102B6000EF900C946414E0916603F09167039081F8
:102B700080916C038095892380838701C15008F47C
:102B800038C0F80184912091540330915503232BD0
:102B900029F00E946F130F5F1F4FF0CF28E030E045
:102BA00040E8E0916203F091630390916A03582F2B
:102BB0005423D9F05081952B9083E0916403F091D8
:102BC0006503908150916B03952B9083E091640392
:102BD000F0916503508190916B03909595239083BC
:102BE000469521503109E9F6D6CF5081909595232D
:102BF000E3CFDF91CF911F910F91FF90EF90089558
:102C00001F93CF93DF93EC018D8D9E8D009721F163
:102C1000162F29A131E030936C0220936B021092A1
:102C20006A0210926902DC01ED91FC910190F08141
:102C3000E02D60E009958D8D9E8DDC01ED91FC917C
:102C40000190F081E02D612F09958D8D9E8DDF9192
:102C5000CF911F910C946414ADA5BEA59C918BA936
:102C6000809589238C938B8D9C8D892B31F0862FB9
:102C7000DF91CF911F910C946F1328E030E080E832
:102C8000A9A5BAA599A9462F4823C1F04C91942B28
:102C90009C93ABA5BCA59C914AA9942B9C93ABA5F6
:102CA000BCA54C919AA9909594239C93869521500C
:102CB000310931F7DF91CF911F9108954C91909593
:102CC0009423E6CFDF92EF92FF920F931F93CF935F
:102CD000DF938091560390915703892B09F498C094
:102CE00020916E0330916F034091700350917103F6
:102CF00060E074E284EF90E00E94CE23205131091D
:102D00004109510956954795379527952093B80065
:102D100065E087E19FE00E944B1560913D036150A3
:102D200089E393E00E94001620913F033091400315
:102D3000C901079697FD079633E0959587953A95D3
:102D4000E1F720913D0330913E03829F8001839FF4
:102D5000100D929F100D1124C0915803D09159036A
:102D600080915603909157030C0F1D1F009709F493
:102D70008FC020915A0331E030936C0220936B0294
:102D800010926A0210926902DC01ED91FC910190AF
:102D9000F081E02D60E40995EE24E394F12CDD242C
:102DA000D39480915603909157030C171D0709F493
:102DB00046C0B0E2EB16F104D8F00E946414809192
:102DC00056039091570320915A03D0926C0220939E
:102DD0006B0210926A0210926902DC01ED91FC9183
:102DE0000190F081E02D60E40995EE24E394F12C4C
:102DF00080915603909157036991DC01ED91FC910C
:102E00000190F081E02D0995BFEFEB1AFB0AC9CFC5
:102E10008091540390915503892B31F08091770371
:102E2000909178030E947613E0916803F091690312
:102E3000908180916D0380958923808369CF0E9462
:102E400064148091560390915703892B09F461C053
:102E50002091720330917303409174035091750374
:102E600060E074E284EF90E00E94CE2320513109AB
:102E70004109510956954795379527952093B800F4
:102E8000DF91CF911F910F91FF90EF90DF90089508
:102E9000E0916603F0916703808190916C03892B28
:102EA00080830C171D0769F289912091540330919A
:102EB0005503232B19F00E946F13F3CF28E030E065
:102EC00040E8E0916203F091630390916A03582F08
:102ED0005423D9F05081952B9083E0916403F091B5
:102EE0006503908150916B03952B9083E09164036F
:102EF000F0916503508190916B0390959523908399
:102F0000469521503109E9F6CCCF50819095952313
:102F1000E3CFE0916803F0916903808190916D03A4
:102F2000892B8083ADCF1F93CF93DF93EC01162FB6
:102F30008D8D9E8D892BB1F12DA93EA94FA958AD3C
:102F400060E074E284EF90E00E94CE2320513109CA
:102F50004109510956954795379527952093B80013
:102F600066EA111167EACE010E9400168D8D9E8DD2
:102F7000892B41F129AD3AAD4BAD5CAD60E074E217
:102F800084EF90E00E94CE2320513109410951097C
:102F900056954795379527952093B800DF91CF91A7
:102FA0001F9108958B8D9C8D892B21F08EAD9FAD47
:102FB0000E947613EFA5F8A990818CA980958923AA
:102FC0008083CECFEFA5F8A980819CA9892B80832F
:102FD000E5CF089590E080E00895FB010190002086
:102FE000E9F73197AF01461B570BDC01ED91FC91DE
:102FF0000280F381E02D09940F931F93CF93DF9309
:103000008C01D0E0C0E0F801EC0FFD1F6491662355
:1030100041F081E792E00E948909892B11F0219605
:10302000F2CF6EE571E081E792E00E94ED178C0F20
:103030009D1FDF91CF911F910F9108950F931F93C3
:10304000CF93DF93EC010E94ED178C016EE571E0E8
:10305000CE010E94ED17800F911FDF91CF911F913C
:103060000F910895DF92EF92FF920F931F93CF93EA
:10307000DF938C017B01D42E87E29FE00E94FC1736
:1030800024E0D29EC00111240E940524EC0180E0BE
:103090002097E1F461E671E081E792E00E941E185A
:1030A0000FB6F894A89580916000886180936000C5
:1030B000109260000FBE88E198E00FB6F894A895D2
:1030C000809360000FBE90936000FFCFD7019C916A
:1030D0008917A0F4B4E08B9F90011124FE01E20F48
:1030E000F31F200F311FD9014D915D916D917C919E
:1030F00040835183628373838F5FE8CF011511058D
:1031000019F0C8010E94A124F701D082CE01DF91FD
:10311000CF911F910F91FF90EF90DF900895CF9383
:10312000DF938CE19FE00E94FC17CAE1D3E0488561
:103130004F5F62E273E08A8D9B8D0E9432189B8FF5
:103140008A8FDF91CF910895CF93DF93EC0188812F
:103150009981009711F00E94A124198218821D8282
:103160001C821B821A82DF91CF910895FC0180811D
:103170009181009711F00C94A124089520913F03B0
:1031800030914003C901079697FD079623E0959576
:1031900087952A95E1F720913D0330913E03829F68
:1031A000A001839F500D929F500D112470E060E0AC
:1031B00080915803909159030C94F525EF92FF925A
:1031C0000F931F930E94BE18EE24E394F12C0FE39B
:1031D00010E030E020E050E040E070E060E089E3A3
:1031E00093E00E948F0E10E000E02FE730E050E007
:1031F00040E070E060E089E393E00E948F0E0FE30F
:1032000010E02FE730E050E040E06FE770E089E346
:1032100093E00E948F0E2FE730E04FE350E070E024
:1032200060E089E393E00E948F0E1F910F91FF9061
:10323000EF9008950E94E7250F931F93CF93DF939C
:10324000EC0188819981009759F02A813B812617EA
:10325000370730F081E0DF91CF911F910F910895F2
:103260008B016F5F7F4F0E942A25009759F0998349
:1032700088831B830A832C813D81232B59F7FC0112
:103280001082E8CF80E0E7CFEF92FF920F931F9379
:10329000CF93DF936115710541F480E0DF91CF9109
:1032A0001F910F91FF90EF90089541155105B1F0D6
:1032B0007B01EC010C811D81040F151FB8010E94D8
:1032C0001C19882351F3288139818C819D81B70194
:1032D000820F931F0E94FC251D830C8381E0DECFAB
:1032E000EF92FF920F931F93CF93DF93EC017B013B
:1032F0008A01BA010E941C1981110BC0CE010E94E3
:10330000A418CE01DF91CF911F910F91FF90EF9004
:1033100008951D830C83B701888199810E94FC2543
:10332000F0CFEF92FF920F931F93CF93DF93CDB720
:10333000DEB729970FB6F894DEBF0FBECDBF8C0164
:10334000862FF80111821082138212821582148254
:103350004AE09E012F5F3F4F7901B90190E00E9442
:103360003B23F70101900020E9F73197AF014E1997
:103370005F09B701C8010E94701929960FB6F89429
:10338000DEBF0FBECDBFDF91CF911F910F91FF9098
:10339000EF90089585ED8093BC008091ED019091B0
:1033A000EE01A091EF01B091F0010796A11DB11DB2
:1033B00023E0B695A795979587952A95D1F7209103
:1033C000BC0024FD03C01092360208954091ED0127
:1033D0005091EE016091EF017091F001452B462B69
:1033E000472B69F30097A105B10541F025E32A9524
:1033F000F1F700000197A109B109E1CF8091EC013B
:103400000C94BE131F920F920FB60F9211242F939C
:103410003F934F935F936F937F938F939F93AF935C
:10342000BF93EF93FF9381E792E00E946709FF91BA
:10343000EF91BF91AF919F918F917F916F915F912C
:103440004F913F912F910F900FBE0F901F901895A5
:103450001F920F920FB60F9211242F938F939F9369
:10346000EF93FF93E0918102F09182028081E091DD
:103470008702F091880282FD1BC0908180918A02B0
:103480008F5F8F7320918B02821741F0E0918A0247
:10349000F0E0EF58FD4F958F80938A02FF91EF91F6
:1034A0009F918F912F910F900FBE0F901F901895A5
:1034B0008081F4CF1F920F920FB60F9211242F9399
:1034C0003F938F939F93AF93BF9380916D029091A1
:1034D0006E02A0916F02B091700230915C0223E005
:1034E000230F2D3758F50196A11DB11D20935C02C5
:1034F00080936D0290936E02A0936F02B09370025E
:1035000080915D0290915E02A0915F02B091600295
:103510000196A11DB11D80935D0290935E02A09360
:103520005F02B0936002BF91AF919F918F913F91E5
:103530002F910F900FBE0F901F90189526E8230F24
:103540000296A11DB11DD2CF1F920F920FB60F92FE
:1035500011242F933F934F935F936F937F938F9398
:103560009F93AF93BF93EF93FF938091B900887FB0
:10357000803609F44AC0F0F5883209F4A7C018F57E
:10358000803109F49BC0B8F4882309F4F9C088306D
:1035900009F494C0FF91EF91BF91AF919F918F91EA
:1035A0007F916F915F914F913F912F910F900FBE3F
:1035B0000F901F901895883109F488C0803251F718
:1035C0008093350214C0803409F49DC040F48033E8
:1035D000B9F38833F9F68093350285ECB0C08035B5
:1035E00009F485C0883509F496C0883499F60E949C
:1035F000CA19D0CF883909F48CC038F5883729F03A
:1036000050F4883611F0803729F683E08093360233
:103610001092340257C0883809F47BC0803919F001
:10362000803809F0B7CF80913402803208F071C041
:10363000E091340281E08E0F809334028091BB00D0
:10364000F0E0EC5EFD4F80833DC0803B39F0E0F45C
:10365000803A09F479C0883A09F09CCF84E08093DD
:1036600036021092130210921202E0916402F0915D
:10367000650209958091120281110FC081E080934B
:1036800012021092F20109C0803C09F4A6CF883CD6
:1036900009F4A3CF883B09F07DCFE091130281E0CC
:1036A0008E0F80931302F0E0EE50FE4F80818093E6
:1036B000BB00909113028091120229C080915B029D
:1036C0008093BB0085EC8093BC0064CF90915A023C
:1036D00080915902981758F5E0915A0281E08E0FB7
:1036E00080935A02F0E0E75CFD4F8081E9CFE091E2
:1036F0005A0281E08E0F80935A028091BB00F0E065
:10370000E75CFD4F808390915A028091590298178F
:10371000C8F285E8D8CFE0915A0281E08E0F8093FD
:103720005A028091BB00F0E0E75CFD4F80838091FE
:10373000380281115CCF81E08093370284EA809364
:10374000BC001092360226CF85EC8093BC0010920C
:10375000360280913402803230F4E0913402F0E09D
:10376000EC5EFD4F10826091340270E0E0916202E5
:10377000F091630284E192E00995109234020ACF3D
:103780001092350234CF1F93CF93DF93E1E7F2E03D
:103790001382128248EE53E060E070E04483558368
:1037A0006683778382E191E09183808385EC90E06A
:1037B0009587848784EC90E09787868780EC90E0FB
:1037C000918B808B81EC90E0938B828B82EC90E0EC
:1037D000958B848B86EC90E0978B868B118E128E66
:1037E000138E148EAEE0B3E013961C921E921297C5
:1037F00014964D935D936D937C93179784E291E0BB
:1038000011969C938E93E9E3F3E01382128220E8F1
:1038100030E03583248380E490E09783868331878A
:10382000208793878287168A1586148617861686C0
:1038300011E0158B148B8FEF9FEF938B828B918B05
:10384000808B178B108E128E118E148E138EB68F66
:10385000A58F10A2178E84A385A386A387A384E0D7
:1038600080A780E89AE1A6E0B0E085AB96ABA7AB75
:10387000B0AF80EA96E8A1E0B0E081AF92AFA3AF2D
:10388000B4AF80E586AF17AE86E391E09183808385
:10389000CAE1D3E080910A0190910B01A0910C0143
:1038A000B0910D018C879D87AE87BF8784E090E043
:1038B0000E9405249B8F8A8F188719861B861A867B
:1038C000188219821A821B821C821D821E821F820C
:1038D000DF91CF911F910895CF93DF93CDB7DEB7DE
:1038E0002D970FB6F894DEBF0FBECDBF789484B588
:1038F000826084BD84B5816084BD85B5826085BDEC
:1039000085B5816085BD80916E00816080936E0079
:10391000109281008091810082608093810080916B
:10392000810081608093810080918000816080931C
:1039300080008091B10084608093B1008091B000DC
:1039400081608093B00080917A00846080937A00D7
:1039500080917A00826080937A0080917A00816001
:1039600080937A0080917A00806880937A00109228
:10397000C1000E949F080E949F0880915803909167
:103980005903892B31F520913F0330914003C90140
:10399000079697FD0796B3E095958795BA95E1F759
:1039A00020913D0330913E03AC01429FC001439FF3
:1039B000900D529F900D11240E940524909359035D
:1039C00080935803892B29F48AE99EE00E94FC1712
:1039D000FFCF0E94BE1820913F0330914003809199
:1039E0003D0390913E03B901213231050CF450C1E1
:1039F0006054710977FF02C06F5F7F4F75956795BF
:103A00008255910997FD019600E410E022E530E02F
:103A100045EC5BE0959587950E940A1082E08093C3
:103A20005B038091560390915703892B09F443C19E
:103A30008DE380935A0310926702109266021092EF
:103A40006A02109269020E94A01387EE98E0909398
:103A500065028093640288EE98E0909363028093FD
:103A600062028091610387FD1DC00E94C70861E06A
:103A7000809161030E94F60961E070E080E090E0CF
:103A80000E94670A60E0809161030E94F6096AE083
:103A900070E080E090E00E94670A61E0809161033D
:103AA0000E94F6098091560390915703892B09F4DF
:103AB000B9C120916E0330916F0340917003509112
:103AC000710360E074E284EF90E00E94CE23205105
:103AD0003109410951095695479537952795209306
:103AE000B80064E081EE99E00E944B1560913F03BD
:103AF000615089E393E00E94001664E08DED99E047
:103B00000E944B1580915B0360E1813009F064E114
:103B100089E393E00E94001664E089ED99E00E9439
:103B20004B158FE88093760380913D0390913E037F
:103B30008038910509F08FC180913F039091400337
:103B40008034910509F097C180915B03813009F0C1
:103B500080C18FE98093760312E16AED89E393E0F7
:103B60000E940016612F89E393E00E94001661E82D
:103B700089E393E00E9400166091760389E393E065
:103B80000E94001669ED89E393E00E94001680917F
:103B90005B0362E2813009F061EF89E393E00E9408
:103BA000001666E083ED99E00E944B158091560364
:103BB00090915703892B09F462C1209172033091CF
:103BC0007303409174035091750360E074E284EFD5
:103BD00090E00E94CE2320513109410951095695A8
:103BE0004795379527952093B80085E89EE00E9479
:103BF000FC170E94621660ED77E080E090E00E9482
:103C0000670A0E94BE188AB18F798AB9579A209A9A
:103C100010922A0310922B0310922C0310922D0362
:103C200010922E0310922F03109230031092310342
:103C30000E948F180E948F180E948F180E948F1860
:103C4000909122038FEF890F54E085029001112497
:103C50009E5F43E0592F581B87FD1BC1E091340341
:103C6000F0913503E20FF31F5083E0913403F0919C
:103C70003503E20FF31F4183E0913403F0913503E4
:103C8000E20FF31F13821282245031098150E2CFD8
:103C90006052710977FF02C06F5F7F4F759567951E
:103CA0008357910997FD019600E210E023E730E089
:103CB00045EE59E0AFCE80915F030E94C708809126
:103CC00060030E94C70880915F03082E000C990BC7
:103CD000FC01E151F14FE491F0E0EE0FFF1FE552DE
:103CE000F14F259134913093670320936603FC01D3
:103CF000ED5FF04FE491E0936C0380916003082E38
:103D0000000C990BFC01E151F14FE491F0E0EE0F52
:103D1000FF1FE552F14FA591B491B0936903A093B1
:103D20006803FC01ED5FF04FE491E0936D038C912B
:103D3000E82BEC938091540390915503892B89F1E2
:103D40001FB7F89480916102811124C0E9EFFEE071
:103D50008491EDE0FFE09491E82FF0E0EE0FFF1F7B
:103D6000EB51F14FA591B491EC91E92321F461E07D
:103D70008AE00E94F6098AE00E94C7088CB580613B
:103D80008CBD8CB580648CBD8DE00E94C7088BE033
:103D90000E94C708809161028F5F809361021FBFFC
:103DA00060CE80915D030E94C70880915E030E94EF
:103DB000C70880915D03082E000C990BFC01E151AE
:103DC000F14FE491F0E0EE0FFF1FE552F14F259126
:103DD00034913093630320936203FC01ED5FF04F55
:103DE000E491E0936A0380915E03082E000C990B26
:103DF000FC01E151F14FE491F0E0EE0FFF1FE552BD
:103E0000F14FA591B491B0936503A0936403FC01B5
:103E1000ED5FF04FE491E0936B038C91E095E82324
:103E2000EC931FCE8091540390915503892B31F070
:103E300080917703909178030E947613E091680354
:103E4000F0916903908180916D038095892380832F
:103E500048CE8FEC7FCE8036910569F480913F0388
:103E600090914003409739F480915B03813029F4AD
:103E700080E18093760312E070CE8FEAFACFE09172
:103E80006803F0916903808190916D03892B808391
:103E9000ACCE1092360310923703109238032224CE
:103EA0002394312CA9E34A2E512C612C712C8824A7
:103EB0008394912CDD24D39480912203893109F0DD
:103EC00048C0A0903203B0903303009134031091A6
:103ED00035030E94BE180E94DE1890924C03809217
:103EE0004B0390924A038092490385EB9EE09093A6
:103EF000530380935203D0924D03D0924E03EEE1D0
:103F0000F0E0F0934603E0934503F0934803E09319
:103F1000470366E771E089E393E00E941E180115EC
:103F2000110519F0C8010E94A124A114B10419F0CF
:103F3000C5010E94A12410922203109223030E9423
:103F4000621668E873E180E090E00E94670A1092D0
:103F5000680280916802811161C00E94C807F091D7
:103F60002203FD8700913403109135030E94BE188F
:103F70000E94DE1890924C0380924B0390924A0369
:103F80008092490345EB5EE0509353034093520304
:103F9000D0924D03D0924E0382E390E0909346037B
:103FA00080934503909348038093470361E871E051
:103FB00089E393E00E941E185801C12C9D859C1531
:103FC000A9F0F501418150E0608170E0EE24E394B6
:103FD000F12C02E010E022E030E089E393E00E945F
:103FE000240FC394F4E0AF0EB11CE8CF0E94621618
:103FF0000E94990A843079F0D092680240E050E043
:10400000452B09F459CF0E945309882309F452CF54
:104010000E9400004FCF10926802F0CF0E94990AD0
:10402000182F843011F18BEC9EE00E94FC17409118
:104030002303411164C084E090E00E940524FC0148
:104040009093330380933203D0922303111145C020
:1040500043E050E053834283A0913403B091350391
:104060008C91808311968C91818380912303882386
:1040700009F421C160E0E09123036E1708F0B9C094
:10408000F4E06F9F9001112470E0A0913403B0918F
:104090003503E0913203F09133034091220374170A
:1040A00008F0A5C084E0789FA0011124A40FB51FDB
:1040B00012964D915C9113974115510509F084C0FA
:1040C000E20FF31F9C91808198138FC082819381AE
:1040D00013969C938E93129788C0113019F43382F3
:1040E0002282BACF123019F413821282B5CF133064
:1040F00009F0B2CF82E090E093838283ADCF4F5F2F
:1041000063E273E080913203909133030E9432188E
:1041100090933303809332032091230311110FC036
:10412000E22FF0E0E150F04CEE0FFF1FEE0FFF1F0B
:10413000E80FF91F83E090E0938382830EC030E0A4
:104140002150304C220F331F220F331FFC01E20F8E
:10415000F31F113079F533822282E0913403F0911C
:10416000350340818091230390E08150904C880F6B
:10417000991F880F991F2091320330913303820FCA
:10418000931FFC014083E0913403F091350341819A
:104190008091230390E08150904C880F991F880FE5
:1041A000991F2091320330913303820F931FFC013A
:1041B00041835BCF123019F413821282CECF1330B9
:1041C00061F682E090E0B8CF4130510509F478CF34
:1041D0004230510539F4E20FF31F11969C9111976B
:1041E000818172CF43305105B1F37F5F4ECF6F5F56
:1041F00042CFA0912203B0E0A150B04CAA0FBB1F48
:10420000AA0FBB1F8091340390913503A80FB91FEB
:104210008091320390913303F0E0E150F04CEE0FC7
:10422000FF1FEE0FFF1FE80FF91F3C912081321393
:1042300042C011963C91218132133DC0009711F08C
:104240000E94A1241092230360E0CE0101960E94F7
:10425000911918861F821A8619861C861B8649E1C9
:1042600050E066E871E0CE0107960E9470194D811A
:104270005E8169817A81CE0107960E94441981117D
:1042800004C0CE0107960E94A4184B855C856F81FF
:10429000788581E792E00E94E9086EE571E081E7A8
:1042A00092E00E94ED17CE0107960E94B618CE014B
:1042B00001960E94B6180E94C807809138038111A8
:1042C0001CC00E94E32229E730E040E050E00E9459
:1042D00065236D5F7F4F8F4F9F4F609336030E9422
:1042E000E322A30192010E9465236D5F7F4F8F4FF0
:1042F0009F4F60933703D0923803E0913403F091DD
:10430000350390818091360398134FC0918180913D
:10431000370398134AC08EEB9EE00E94FC17109260
:10432000360310923703109238030E948F18E091E1
:104330003403F09135038091220390E08250904C39
:10434000880F991F880F991FE80FF91F82819381A9
:1043500097838683E0913403F091350380912203A3
:1043600090E08150904C880F991F880F991FE80F9B
:10437000F91F228133812115310509F074C0DF0155
:1043800014979C9191509083E0913403F091350300
:104390008091220390E08250904C880F991F880FE3
:1043A000991FE80FF91F8181858360912203CE0157
:1043B00007960E9491191A8219821C821B821E8202
:1043C0001D824AE050E060EA71E0CE0101960E9451
:1043D00070194B855C856F817885CE0101960E94AE
:1043E0004419811104C0CE0101960E94A4184D8188
:1043F0005E8169817A8181E792E00E94E9086EE539
:1044000071E081E792E00E94ED17CE0101960E94D3
:10441000B618CE0107960E94B618909122039D8788
:1044200000913403109135030E94BE180E94DE18DB
:104430005801C12CED85EC1509F450C0F5014181FE
:1044400050E0608170E0EE24E394F12C02E010E093
:1044500022E030E089E393E00E94240FC394F4E06B
:10446000AF0EB11CE7CF2130310529F4DF011497DD
:104470009C919F5F88CF22303105B1F4DF01149702
:104480008C918083E0913403F09135038091220375
:1044900090E08250904C880F991F880F991FE80F69
:1044A000F91F8181815080CF2330310509F07DCF04
:1044B000DF0114978C918083E0913403F0913503F0
:1044C0008091220390E08250904C880F991F880FB2
:1044D000991FE80FF91F81818F5F66CF40913703E5
:1044E00050E06091360370E080913803F12CE12CAC
:1044F000882319F0EE24E394F12C02E010E022E08E
:1045000030E089E393E00E94240F0E94621676CD8A
:1045100086E391E090933A038093390380915803A6
:1045200090915903009711F00C94A12408958F9253
:104530009F92AF92BF92CF92DF92EF92FF92CF9372
:10454000DF93EC01688179818A819B816115710516
:104550008105910521F464E279ED8BE597E02DE189
:1045600033EF41E050E00E94652349015A019B016D
:10457000AC01A7EAB1E40E9484236B017C01ACEE9C
:10458000B4EFA50194010E949223C60ED71EE81E27
:10459000F91EF7FE06C081E0C81AD108E10880E8DC
:1045A000F80AC882D982EA82FB82C701B6019F77E6
:1045B000DF91CF91FF90EF90DF90CF90BF90AF90C1
:1045C0009F908F9008958F929F92AF92BF92CF92BB
:1045D000DF92EF92FF926091000170910101809152
:1045E000020190910301611571058105910521F486
:1045F00064E279ED8BE597E02DE133EF41E050E0A7
:104600000E94652349015A019B01AC01A7EAB1E46C
:104610000E9484236B017C01ACEEB4EFA5019401F0
:104620000E949223C60ED71EE81EF91EF7FE06C092
:1046300081E0C81AD108E10880E8F80AC0920001B8
:10464000D0920101E0920201F0920301C701B6018C
:104650009F77FF90EF90DF90CF90BF90AF909F90AB
:104660008F9008956093000170930101809302017F
:10467000909303010895BB27FB015527AA27880FB4
:10468000991FAA1FA41710F0A41B83955051B9F7C6
:10469000A05DAA3308F0A95DA193009779F7B11145
:1046A000B1931192CB010C945523DC01FC01672FCF
:1046B00071917723E1F7329704C07C916D937083F9
:1046C0006291AE17BF07C8F30895052E97FB1EF43D
:1046D00000940E947C2357FD07D00E94CE2307FC44
:1046E00003D04EF40C947C23509540953095219541
:1046F0003F4F4F4F5F4F089590958095709561950E
:104700007F4F8F4F9F4F08950E94F023A59F900DDC
:10471000B49F900DA49F800D911D11240895B7FFA3
:104720000C9484230E948423821B930B08952F9260
:104730003F924F925F926F927F928F929F92AF9231
:10474000BF92CF92DF92EF92FF920F931F93CF937E
:10475000DF93CDB7DEB7CA1BDB0B0FB6F894DEBF15
:104760000FBECDBF09942A88398848885F846E843B
:104770007D848C849B84AA84B984C884DF80EE8085
:10478000FD800C811B81AA81B981CE0FD11D0FB68E
:10479000F894DEBF0FBECDBFED010895A1E21A2E41
:1047A000AA1BBB1BFD010DC0AA1FBB1FEE1FFF1FD5
:1047B000A217B307E407F50720F0A21BB30BE40B25
:1047C000F50B661F771F881F991F1A9469F760956C
:1047D0007095809590959B01AC01BD01CF01089526
:1047E000A29FB001B39FC001A39F700D811D112432
:1047F000911DB29F700D811D1124911D0895EE0F22
:10480000FF1F0590F491E02D09940F931F93CF9310
:10481000DF938230910510F482E090E0E0917B0319
:10482000F0917C0330E020E0B0E0A0E0309799F414
:104830002115310509F44AC0281B390B24303105F4
:10484000D8F58A819B816115710589F1FB019383FC
:104850008283FE0111C0408151810281138148177A
:104860005907E0F04817590799F4109761F012962C
:104870000C93129713961C933296CF01DF91CF9130
:104880001F910F91089500937B0310937C03F4CF45
:104890002115310551F04217530738F0A901DB010A
:1048A0009A01BD01DF01F801C1CFEF01F9CF90936B
:1048B0007C0380937B03CDCFFE01E20FF31F819336
:1048C00091932250310939832883D7CF20917903DE
:1048D00030917A03232B41F4209106013091070196
:1048E00030937A03209379032091040130910501DC
:1048F0002115310541F42DB73EB740910801509183
:104900000901241B350BE0917903F0917A03E2173A
:10491000F307A0F42E1B3F0B2817390778F0AC01E2
:104920004E5F5F4F2417350748F04E0F5F1F5093BF
:104930007A0340937903819391939FCFF0E0E0E075
:104940009CCFCF93DF930097E9F0FC01329713825D
:104950001282A0917B03B0917C03ED0130E020E056
:104960001097A1F420813181820F931F2091790348
:1049700030917A032817390709F061C0F0937A0360
:10498000E0937903DF91CF910895EA01CE17DF0715
:10499000E8F54A815B819E0141155105B1F7E901B6
:1049A000FB83EA8349915991C40FD51FEC17FD078A
:1049B00061F4808191810296840F951FE9019983AA
:1049C0008883828193819B838A83F0E0E0E0129662
:1049D0008D919C9113970097B9F52D913C9111976A
:1049E000CD010296820F931F2091790330917A03B3
:1049F0002817390739F6309751F510927C03109239
:104A00007B03B0937A03A0937903BCCFD383C28393
:104A100040815181840F951FC817D90761F44E5FFB
:104A20005F4F88819981480F591F518340838A8144
:104A30009B81938382832115310509F0B0CFF093D8
:104A40007C03E0937B039ECFFD01DC01C0CF13828A
:104A50001282D7CFB0E0A0E0E0E3F5E20C94992316
:104A60008C01009751F4CB010E9405248C01C801F0
:104A7000CDB7DEB7E0E10C94B523FC01E60FF71FDC
:104A80009C0122503109E217F30708F49DC0D901B7
:104A9000CD91DC911197C617D70798F0C530D10595
:104AA00030F3CE0104978617970708F3C61BD70B80
:104AB0002297C193D1936D937C93CF010E94A1243F
:104AC000D6CF5B01AC1ABD0A4C018C0E9D1EA09185
:104AD0007B03B0917C03512C412CF12CE12C1097DD
:104AE00031F58091790390917A038815990509F041
:104AF0005CC04616570608F058C08091040190919A
:104B00000501009741F48DB79EB74091080150917F
:104B10000901841B950BE817F90708F055C0F093BD
:104B20007A03E0937903F90171836083A0CF8D91BB
:104B30009C91119712966C90129713967C901397F4
:104B4000A815B90559F56C0142E0C40ED11CCA1470
:104B5000DB0420F1AC014A195B09DA0112961597C2
:104B600080F06282738251834083D9016D937C937C
:104B7000E114F10471F0D7011396FC93EE931297B0
:104B800076CF22968C0F9D1FF90191838083F301CC
:104B9000EFCFF0937C03E0937B0369CF481659066F
:104BA00008F42C017D01D3019ACFCB010E9405248A
:104BB0007C01009749F0AE01B8010E94EC25C801C4
:104BC0000E94A124870153CF10E000E050CF81E084
:104BD00090E0F8940C940326FB01DC0102C00190E4
:104BE0000D9241505040D8F70895DC0101C06D93FB
:104BF00041505040E0F70895FB01DC0101900D9217
:104C00000020E1F7089517E0CDE9D7E004C0FE01E8
:104C10000E94FF232196CE39D107C9F7F894FFCF20
:104C20000100000000007D0380000001020300007D
:104C300000008909E9081609D60947092509390933
:104C40000000000035140814EA17E6080114EE13FA
:104C5000DF13000000005E0DE908EA17E917BF1234
:104C6000E6080310DB0FF70FEB0F6B10E608240BC1
:104C700093172F127812240F070F8F0E300E0D0A84
:104C8000005265616C6C6F636174696F6E20666160
:104C9000696C65642100594F552756452057494E88
:104CA00000504C415900426F7272616E646F2E2049
:104CB0006D6F7665735F6C656E677468203D20006C
:0C4CC0004C6F6E67697475643A20000048
:107E0000112484B714BE81FFF0D085E080938100F7
:107E100082E08093C00088E18093C10086E0809377
:107E2000C20080E18093C4008EE0C9D0259A86E02C
:107E300020E33CEF91E0309385002093840096BBD3
:107E4000B09BFECF1D9AA8958150A9F7CC24DD24C4
:107E500088248394B5E0AB2EA1E19A2EF3E0BF2EE7
:107E6000A2D0813461F49FD0082FAFD0023811F036
:107E7000013811F484E001C083E08DD089C08234E0
:107E800011F484E103C0853419F485E0A6D080C0E4
:107E9000853579F488D0E82EFF2485D0082F10E0AE
:107EA000102F00270E291F29000F111F8ED06801E7
:107EB0006FC0863521F484E090D080E0DECF843638
:107EC00009F040C070D06FD0082F6DD080E0C81688
:107ED00080E7D80618F4F601B7BEE895C0E0D1E017
:107EE00062D089930C17E1F7F0E0CF16F0E7DF06D8
:107EF00018F0F601B7BEE89568D007B600FCFDCFD4
:107F0000A601A0E0B1E02C9130E011968C91119780
:107F100090E0982F8827822B932B1296FA010C0160
:107F200087BEE89511244E5F5F4FF1E0A038BF0790
:107F300051F7F601A7BEE89507B600FCFDCF97BE46
:107F4000E89526C08437B1F42ED02DD0F82E2BD052
:107F50003CD0F601EF2C8F010F5F1F4F84911BD097
:107F6000EA94F801C1F70894C11CD11CFA94CF0C13
:107F7000D11C0EC0853739F428D08EE10CD085E9AC
:107F80000AD08FE07ACF813511F488E018D01DD067
:107F900080E101D065CF982F8091C00085FFFCCF94
:107FA0009093C60008958091C00087FFFCCF809118
:107FB000C00084FD01C0A8958091C6000895E0E648
:107FC000F0E098E1908380830895EDDF803219F02E
:107FD00088E0F5DFFFCF84E1DECF1F93182FE3DFCA
:107FE0001150E9F7F2DF1F91089580E0E8DFEE27F6
:047FF000FF270994CA
:027FFE00040479
:00000001FF
