:100000000C945F050C9487050C9487050C94870568
:100010000C9487050C9487050C9487050C94870530
:100020000C9487050C9487050C9487050C94870520
:100030000C9487050C9487050C9487050C94870510
:100040000C940F160C9487050C94DD150C94B715C1
:100050000C9487050C9487050C9487050C948705F0
:100060000C9459160C948705000103070F1F3F7F5E
:100070000080C0E0F0F8FCFE00000000003E5B4F96
:100080005B3E3E6B4F6B3E1C3E7C3E1C183C7E3CF8
:10009000181C577D571C1C5E7F5E1C00183C180006
:1000A000FFE7C3E7FF0018241800FFE7DBE7FF3096
:1000B000483A060E2629792926407F050507407F04
:1000C00005253F5A3CE73C5A7F3E1C1C08081C1C77
:1000D0003E7F14227F22145F5F005F5F06097F016D
:1000E0007F006689956A606060606094A2FFA29458
:1000F00008047E040810207E201008082A1C080826
:100100001C2A08081E101010100C1E0C1E0C303873
:100110003E3830060E3E0E06000000000000005F74
:1001200000000007000700147F147F14242A7F2A90
:100130001223130864623649562050000807030052
:10014000001C2241000041221C002A1C7F1C2A089E
:10015000083E080800807030000808080808000001
:1001600060600020100804023E5149453E00427F75
:10017000400072494949462141494D331814127FC4
:100180001027454545393C4A494931412111090764
:100190003649494936464949291E000014000000E5
:1001A00040340000000814224114141414140041B7
:1001B00022140802015909063E415D594E7C121174
:1001C000127C7F494949363E414141227F414141AC
:1001D0003E7F494949417F090909013E4141517327
:1001E0007F0808087F00417F41002040413F017F98
:1001F000081422417F404040407F021C027F7F0460
:1002000008107F3E4141413E7F090909063E4151A8
:10021000215E7F09192946264949493203017F0198
:10022000033F4040403F1F2040201F3F4038403F99
:10023000631408146303047804036159494D4300AF
:100240007F4141410204081020004141417F0402E6
:10025000010204404040404000030708002054547D
:1002600078407F284444383844444428384444285B
:100270007F385454541800087E090218A4A49C78AE
:100280007F0804047800447D40002040403D007F0A
:100290001028440000417F40007C047804787C08EA
:1002A0000404783844444438FC18242418182424BE
:1002B00018FC7C08040408485454542404043F44A3
:1002C000243C4040207C1C2040201C3C4030403CD2
:1002D00044281028444C9090907C4464544C440032
:1002E0000836410000007700000041360800020196
:1002F0000204023C2623263C1EA1A161123A404082
:10030000207A3854545559215555794122545478FE
:1003100042215554784020545579400C1E52721297
:100320003955555559395454545939555454580020
:1003300000457C410002457D420001457C407D1224
:1003400011127DF0282528F07C5455450020545486
:100350007C547C0A097F4932494949323A44444431
:100360003A324A4848303A4141217A3A424020786C
:10037000009DA0A07D3D4242423D3D4040403D3C6D
:1003800024FF2424487E4943662B2FFC2F2BFF0992
:1003900029F620C0887E0903205454794100004486
:1003A0007D413048484A32384040227A007A0A0A71
:1003B000727D0D19317D2629292F282629292926E4
:1003C00030484D4020380808080808080808382F29
:1003D00010C8ACBA2F102834FA00007B00000814B3
:1003E0002A142222142A14085500550055AA55AA89
:1003F00055AAFF55FF55FF000000FF00101010FF29
:1004000000141414FF001010FF00FF1010F010F083
:10041000141414FC001414F700FF0000FF00FF1474
:1004200014F404FC141417101F10101F101F1414C0
:10043000141F00101010F0000000001F101010100A
:100440001F10101010F010000000FF1010101010FE
:1004500010101010FF10000000FF140000FF00FF3C
:1004600000001F10170000FC04F4141417101714D8
:1004700014F404F40000FF00F714141414141414FA
:10048000F700F7141414171410101F101F1414146D
:10049000F4141010F010F000001F101F0000001FD7
:1004A00014000000FC140000F010F01010FF10FF0A
:1004B000141414FF141010101F00000000F010FF9F
:1004C000FFFFFFFFF0F0F0F0F0FFFFFF0000000083
:1004D00000FFFF0F0F0F0F0F3844443844FC4A4A07
:1004E0004A347E02020606027E027E0263554941BC
:1004F000633844443C04407E201E2006027E0202F3
:1005000099A5E7A5991C2A492A1C4C7201724C3006
:100510004A4D4D303048784830BC625A463D3E49DD
:100520004949007E0101017E2A2A2A2A2A44445F81
:10053000444440514A444040444A51400000FF0175
:1005400003E080FF000008086B6B08361236243683
:10055000060F090F060000181800000010100030E8
:1005600040FF0101001F01011E00191D1712003C70
:100570003C3C3C00000000000000000800020100BC
:100580000003040700000000000000002200FF211B
:10059000005353443133303620696E697469616C9D
:1005A000697A656421004572726F7220696E6974A0
:1005B000696C697A696E6720535344313330362150
:1005C00000496E2044726177204600DB40A4A62ECD
:1005D000AF2000A1C8D300408DAED580A800006038
:1005E0000000000000000000000000000000E0002B
:1005F00000000000000000000000000001E000001A
:10060000000000000000000000000001F0000000F9
:100610000000000000000000000003F000000000E7
:1006200000000000000000000007F00000000000D3
:10063000000000000000000007F8000000000000BB
:10064000000000000000000FF800000003C0007E62
:10065000000001E0007F0FF800000003C000FE0072
:100660000001E000FFEFF800000003C000FE000002
:1006700001E000FFFFF800000003C000F0000000F0
:100680000F007FFE7FC0000003C000F00000000FDD
:10069000003FFE7FF83FF1FBCFFCFEF3BC3DEFE0F7
:1006A0001FFE7FFF7FFBFFDFFEFEFFBC3DEFE01F75
:1006B000C6FFFF7FFBFFDFFEFEFFBC3DEFE00FE369
:1006C000C7FE787BC3DE1EF0FFBC3DEF0007FF874F
:1006D000FC787BC3DE1EF0F83C3DEF0001FFFFF02D
:1006E000007BC3C01EF0F03C3DEF0001F37FE03F14
:1006F000FBC3CFFEF0F03C3DEF0003E33F807FFB08
:10070000C3DFFEF0F03C3DEF0007E73C00787BC321
:10071000DE1EF0F03C3DEF0007FFBE00787BC3DE3D
:100720001EF0F03C3DEF0007FFFE00787BC3DE1EAD
:10073000F0F03C3DEF000FFFFE007FFBFFDFFEF01F
:10074000F03FFDEFE00FFFFF007FFBFFDFFEF0F06B
:100750003FFDEFE00FF9FF003E79F9CF9EF0F01F6B
:100760003DE7E01FF1FF0000000000000000000076
:1007700000001F80FF007FFFFFFFFFFFFFFFFFFF65
:10078000E01C007F007FFFFFFFFEB46D888D18E046
:1007900000001F007FFFFFFFFE95AD7DB577E000F5
:1007A000000F007FFFFFFFFEA5AD9D8D19E000004B
:1007B00006007FFFFFFFFEB5ADEDB57EE000000057
:1007C0000000018000000000000000000003800025
:1007D000000000000000000007C000000000000052
:1007E00000000007C00000000000000000000FC073
:1007F0000000000000000000001FE00000000000FA
:10080000000000001FE00000000000000000003FAA
:10081000E00000000000000000003FF000000000C9
:1008200000000000007FF0000000000000001FF842
:100830007FF0000000000000003FFE7FF00000009D
:10084000000000003FFF7FF0000000000000001FDC
:10085000FFFBE0000000000000000FFFF9FFC000F8
:1008600000000000000FFFF9FFF80000000000008A
:1008700007FFF1FFFF00000000000003FC73FFFF13
:1008800080000000000001FE3FFFFF80000000002C
:100890000000FF1E0FFF000000000000007FFE1F91
:1008A000FC000000000000003FFFFFF80000000017
:1008B0000000000FDFFFE0000000000000001F1933
:1008C000FFC0000000000000003F3CFF00000000EF
:1008D000000000007E7CF800000000000000007FA7
:1008E000FE7C0000000000000000FFFFFC00000094
:1008F0000000000000FFFFFE0000000000000000FC
:10090000FFFFFE0000000000000001FFEFFE0000FE
:10091000000000000001FFCFFE000000000000000A
:1009200003FF07FE0000000000000003FC07FE00BC
:1009300000000000000003F003FE000000000000C3
:1009400000018000FE000000000000000000007EAA
:10095000000000000000000000003E000000000059
:1009600000000000000C000000000000078000FCF8
:10097000000003C0000000078001FC000003C0006D
:100980000000078001FC000003C000000007800198
:10099000E00000001E000000078001E00000001ED3
:1009A000007FE3F79FF9FDE7787BDFC0FFF7FFBF2C
:1009B000FDFDFF787BDFC0FFF7FFBFFDFDFF787B0C
:1009C000DFC0F0F787BC3DE1FF787BDE00F0F78702
:1009D000BC3DE1F0787BDE0000F787803DE1E07808
:1009E0007BDE007FF7879FFDE1E0787BDE00FFF78D
:1009F00087BFFDE1E0787BDE00F0F787BC3DE1E0FA
:100A0000787BDE00F0F787BC3DE1E0787BDE00F02C
:100A1000F787BC3DE1E0787BDE00FFF7FFBFFDE13B
:100A2000E07FFBDFC0FFF7FFBFFDE1E07FFBDFC042
:100A30007CF3F39F3DE1E03E7BCFC000000000006F
:100A4000000000000000FFFFFFFFFFFFFFFFFFFFB0
:100A5000C0FFFFFFFFFD68DB111A31C0FFFFFFFF82
:100A6000FD2B5AFB6AEFC0FFFFFFFFFD4B5B3B1AFC
:100A700033C0FFFFFFFFFD6B5BDB6AFDC0000000C2
:100A800000250028002B0000000000240027002A79
:100A90000004040404040404040202020202020327
:100AA0000303030303010204081020408001020431
:100AB000081020010204081020007817171A1124CA
:100AC0001FBECFEFD8E0DEBFCDBF11E0A0E0B1E0A8
:100AD000E8E1F7E302C005900D92A436B107D9F71B
:100AE00023E0A4E6B1E001C01D92A531B207E1F711
:100AF00015E0CEE5D5E004C02197FE010E94481A1A
:100B0000CD35D107C9F70E94FC170C947F1B0C94BC
:100B1000000090E0FC01EB55F54F24918F56954F66
:100B2000FC018491882399F090E0880F991FFC01C3
:100B3000E957F54FA591B491FC01E358F54F859124
:100B400094918FB7F894EC91E22BEC938FBF0895BA
:100B5000089508950895AF92BF92CF92DF92EF92D9
:100B6000FF920F931F93CF93DF936C017B018B0157
:100B7000040F151FEB015E01AE18BF08C017D107A7
:100B800059F06991D601ED91FC910190F081E02D31
:100B9000C6010995892B79F7C501DF91CF911F9186
:100BA0000F91FF90EF90DF90CF90BF90AF9008959E
:100BB000FC01538D448D252F30E0842F90E0821B63
:100BC000930B541710F0CF96089501970895FC01E8
:100BD000918D828D981761F0A28DAE0FBF2FB11D40
:100BE0005D968C91928D9F5F9F73928F90E0089598
:100BF0008FEF9FEF0895FC01918D828D981731F052
:100C0000828DE80FF11D858D90E008958FEF9FEFA5
:100C10000895FC01918D228D892F90E0805C9F4F7B
:100C2000821B91098F739927089588E292E00E94B0
:100C3000090621E0892B09F420E0822F089580E045
:100C400090E0892B29F00E94150681110C94000078
:100C50000895FC01A48DA80FB92FB11DA35ABF4F51
:100C60002C91848D90E001968F739927848FA689AB
:100C7000B7892C93A089B1898C91837080648C93FF
:100C8000938D848D981306C00288F389E02D8081AE
:100C90008F7D80830895EF92FF920F931F93CF93E0
:100CA000DF93EC0181E0888F9B8D8C8D98131AC0A7
:100CB000E889F989808185FF15C09FB7F894EE898E
:100CC000FF896083E889F9898081837080648083EB
:100CD0009FBF81E090E0DF91CF911F910F91FF9036
:100CE000EF900895F62E0B8D10E00F5F1F4F0F73DE
:100CF0001127E02E8C8D8E110CC00FB607FCFACF99
:100D0000E889F989808185FFF5CFCE010E94290607
:100D1000F1CFEB8DEC0FFD2FF11DE35AFF4FF08269
:100D20009FB7F8940B8FEA89FB8980818062CFCFCF
:100D3000CF93DF93EC01888D8823B9F0AA89BB8912
:100D4000E889F9898C9185FD03C0808186FD0DC0FD
:100D50000FB607FCF7CF8C9185FFF2CF808185FF1E
:100D6000EDCFCE010E942906E9CFDF91CF91089502
:100D700090E0FC01E858FA4F2491FC01EB55F54F47
:100D80003491FC01EF56F54FE491EE23C9F0222394
:100D900039F0233001F1A8F4213019F1223029F182
:100DA000F0E0EE0FFF1FE358F54FA591B4918FB718
:100DB000F894EC91611126C030953E233C938FBF8F
:100DC00008952730A9F02830C9F0243049F78091E0
:100DD00080008F7D03C0809180008F77809380009A
:100DE000DFCF84B58F7784BDDBCF84B58F7DFBCF1C
:100DF0008091B0008F778093B000D2CF8091B00007
:100E00008F7DF9CF3E2BDACF3FB7F894809119024E
:100E100090911A02A0911B02B0911C0226B5A89BCA
:100E200005C02F3F19F00196A11DB11D3FBFBA2F7C
:100E3000A92F982F8827BC01CD01620F711D811D3C
:100E4000911D42E0660F771F881F991F4A95D1F7C1
:100E500008958F929F92AF92BF92CF92DF92EF92BE
:100E6000FF924B015C010E9404076B017C010E9410
:100E700004076C197D098E099F09683E734081053E
:100E80009105A8F321E0821A9108A108B10888EE23
:100E9000C80E83E0D81EE11CF11C81149104A1044A
:100EA000B10429F7FF90EF90DF90CF90BF90AF9003
:100EB0009F908F9008952091CA01260F3327331FEA
:100EC00021323105ECF42091EE01FC0190E080E04C
:100ED000243069F082E00895A091CA012191AC010B
:100EE00046555E4FA40FB52FB11D2C930196861762
:100EF00098F38091CA01680F6093CA0180E0089559
:100F000081E008951092EE0181E08093F00110924B
:100F1000EF0161E082E10E94B80661E083E10E9496
:100F2000B806E9EBF0E080818E7F808380818D7F41
:100F3000808388E48093B80085E48093BC000895A2
:100F4000CF93DF9391E09093A9018823B9F0C091EA
:100F5000B800D091BA008091BC008A7B8093BC001D
:100F600060E082E10E94B80660E083E10E94B8067A
:100F70000E948207D093BA00C093B800DF91CF914E
:100F80000895E091230280912202E81730F4F0E006
:100F9000EC57FE4F808190E008958FEF9FEF08950A
:100FA00090912302809122022FEF3FEF981748F48F
:100FB000E92FF0E0EC57FE4F208130E09F5F9093E7
:100FC0002302C90108958091220290912302891B76
:100FD000990B0895CF92DF92EF92FF920F931F9398
:100FE000CF93DF937C01CB018A012091270222233A
:100FF00089F0EB016B01C40ED51ECC15DD0569F03F
:101000006991D701ED91FC910190F081E02DC7012C
:101010000995F3CF642F0E945B07C801DF91CF9140
:101020001F910F91FF90EF90DF90CF900895CF9395
:10103000DF931F92CDB7DEB7698320912702222369
:10104000F9F020912402203258F021E030E0FC0138
:101050003383228390E080E00F90DF91CF91089559
:1010600080912502E82FF0E0EC59FE4F99819083A2
:101070008F5F809325028093240281E090E0ECCF83
:1010800061E0CE0101960E945B07F7CFCF92DF921D
:10109000EF92FF920F931F93CF93DF93D09124028F
:1010A00081E0D13208F09CC0C09126020E94040762
:1010B0006B017C018091EE0181116CC082E0809314
:1010C000EE0181E08093F0018FEF8093ED011092AB
:1010D0001202D0931102A4E6B1E0E1EFF1E080E06A
:1010E000D8138DC01092130280911302CC0FC82B1D
:1010F000C09313028091EF01813009F084C01092F7
:10110000EF010E9404076B017C0180911302809320
:10111000BB008091A5019091A601A091A701B0917B
:10112000A801892B8A2B8B2BA1F00E940407009128
:10113000A5011091A6012091A7013091A8016C1979
:101140007D098E099F09061717072807390708F434
:1011500042C08091BC0083FDD8CF85EC8093BC0059
:101160000E9404076B017C018091EE01823009F43A
:101170004CC08091ED018F3F09F469C08091ED0171
:10118000803209F466C08091ED01803309F463C0B8
:1011900084E026C08091A5019091A601A091A701AD
:1011A000B091A801892B8A2B8B2B09F483CF0E9445
:1011B00004070091A5011091A6012091A70130918B
:1011C000A8016C197D098E099F09061717072807C2
:1011D000390708F06FCF8091A4010E94A00785E035
:1011E000109225021092240210922702DF91CF91D3
:1011F0001F910F91FF90EF90DF90CF9008959D91F8
:1012000091938F5F6DCF85EEA9CF8091A5019091CD
:10121000A601A091A701B091A801892B8A2B8B2B45
:1012200009F4A2CF0E9404070091A5011091A60124
:101230002091A7013091A8016C197D098E099F09A1
:10124000061717072807390708F08ECFC4CF80E0AC
:10125000C7CF82E0C5CF83E0C3CF0895FC016370A0
:10126000668B8481958126813781613039F06330C6
:1012700029F09187808733872287089531872087D7
:101280009387828708952F923F924F925F926F9239
:101290007F928F929F92AF92BF92CF92DF92EF9206
:1012A000FF920F931F93CF93DF93CDB7DEB76A976B
:1012B0000FB6F894DEBF0FBECDBF9A8F898F7A83A9
:1012C00069834A01D22E18870F833701BC2CDC01B9
:1012D00059962D913C915A972115310509F015C168
:1012E00018968D919C911997681779070CF0D7C1C2
:1012F0001A968D919C91481759070CF0D0C14C2C2F
:10130000512CB6E0CB9E600D711D11247C876B873C
:10131000161617060CF0C3C1EA2DF0E0FA87E9872C
:1013200093E0EE0FFF1F9A95E1F7F88BEF87CF015F
:10133000840F951F181619060CF0B1C1A98DBA8D2E
:1013400058968C91811104C0BFEABD1508F4D3945E
:10135000A98DBA8DED91FC9111970284F385E02D52
:10136000CD010995B5E0DB9EC0011124E981FA8128
:10137000FC83EB83312C212C9C0128583F4F388F64
:101380002F8B4A2D50E05E8B4D8BEF89F88DE20D4F
:10139000F31D44919E828D82D12CC12C69817A816A
:1013A000620D731D7A8B698B842F90E09C8B8B8BE5
:1013B000E98DFA8DA081B18140FF82C0F1E0BF12BA
:1013C0006FC0AF126DC01C96ED91FC912F813885D6
:1013D000A4014C0D5D1D69897A89898D9A8D0995C5
:1013E000EB89FC89F595E7954E2F5FEFC51AD50A75
:1013F0006D817E818D899E89680F791F7E836D83C3
:1014000098E0C916D10481F6AFEF2A1A3A0AEB81A7
:10141000FC81E40DF51DFC83EB83F5E02F16310410
:1014200009F0B3CF2F81388526153705B9F0A98D7E
:10143000BA8DED91FC91B1E0BB1257C0AB1255C013
:1014400069817A816B5F7F4F0088F189E02D83018C
:1014500028E030E0A401898D9A8D0995A98DBA8D77
:10146000ED91FC9111970688F789E02DCD016A96E0
:101470000FB6F894DEBF0FBECDBFDF91CF911F91A5
:101480000F91FF90EF90DF90CF90BF90AF909F9023
:101490008F907F906F905F904F903F902F90099426
:1014A0001E96ED91FC91EF80F88409851A859201D2
:1014B0004D815E816B817C81898D9A8D099590CF5C
:1014C0002F8138852615370509F48ACF31E0B3120C
:1014D00007C0A31205C01C96ED91FC91930178CF33
:1014E0001E96ED91FC917301E0CF6B857C856419AC
:1014F00075090684F785E02D73010F85188992011F
:10150000A401898D9A8D0995A9CFF90134969491FA
:10151000329745915491D91AB7E0DB9E400D511D89
:101520001124F901259134913C8B2B8BFA012590E4
:101530003490FA013296749031963491398B329608
:1015400064903196449041E04C1518F04A1508F02B
:101550007FC0662D062C000C770B7C836B83842D5B
:10156000042C000C990B9E838D83A98DBA8DED916F
:10157000FC9111970284F385E02DCD010995512C42
:10158000D12CC12CEA2DF0E0FA87E9872B2D30E031
:101590003C872B87A401440D511D47FC5A95588F59
:1015A0004F8B69817A81660D711D67FC7A957E8704
:1015B0006D877989C71608F051CF2C2D30E04D8109
:1015C0005E81420F531FA985BA854A9FC0014B9F78
:1015D000900D5A9F900D1124FC01E80DF91DF88B18
:1015E000EF87852D612C4F89588D420F531F5E8BDD
:1015F0004D8B671408F050C044244394480E877004
:1016000041F4C1010196EB89FC89E20DF31DD490F0
:101610001C01D7FE19C0A98DBA8DED91FC91662DE4
:1016200070E0B1E0BB1219C0AB1217C02D853E852A
:10163000620F731F0484F585E02D2F8138854D8955
:101640005E89898D9A8D0995DD0C6394842DD1CFA7
:101650001E821D821C821B8288CF4B815C81640F9D
:10166000751FAB85BC856A9FC0016B9F900D7A9FEB
:10167000900D112469817A81680F791F0684F7859E
:10168000E02DEF80F88409851A859D014F855889E2
:10169000898D9A8D0995D8CF570CC3948ACF6A96B5
:1016A0000FB6F894DEBF0FBECDBFDF91CF911F9173
:1016B0000F91FF90EF90DF90CF90BF90AF909F90F1
:1016C0008F907F906F905F904F903F902F900895F4
:1016D0008F929F92AF92CF92EF92FF920F931F93B0
:1016E000CF93DF93EC01262F898D9A8D009709F017
:1016F00051C06A30D1F41D861C868D8948E0849FD4
:10170000900111248E859F85820F931F9F878E875E
:1017100081E090E0DF91CF911F910F91FF90EF90CA
:10172000CF90AF909F908F9008956D3089F3CC88C3
:10173000AD888F898823C1F08C859D8536E0C39E56
:10174000800D911D1124488559854817590764F467
:101750004E855F851D861C8638E0A39EC00111243E
:10176000840F951F9F878E87EA88FB8808891989CF
:101770004E855F856C857D85CE010E9443092C894D
:101780008C859D8546E0249F800D911D11249D87A9
:101790008C87BECF6A3069F41D861C86FC013896A2
:1017A000E4912D898E859F85E29F800D911D1124E6
:1017B000ADCF6D3009F4ACCFFC0134963491631792
:1017C00008F4A6CF3296E491E61708F4A1CFFC0105
:1017D000329685909490462F431B342F47E0349FD8
:1017E000800C911C1124F401329634913196E491CD
:1017F0003323A9F1EE2399F1CC88F4013596E491D5
:10180000AD884F89442301F10E2E000CFF0BE30F2E
:10181000F11DCE9EA001CF9E500D11246C857D85BB
:10182000460F571F68857985641775076CF44E85D8
:101830005F851D861C86FC013896E491AE9E400DA6
:10184000511D11245F874E87EA88FB880889198912
:101850004E855F856C857D85CE010E944309F4012C
:101860003496E4912C898C859D85E29F800D911D95
:1018700011248DCF6F927F928F929F92AF92BF92E1
:10188000CF92DF92EF92FF920F931F93CF93DF934C
:10189000EC016B015A0139014801E881F9810284A8
:1018A000F385E02D0995E881F9810288F389E02D1F
:1018B00087019301A501B601CE010995A501480D47
:1018C000591D41505109E881F9810288F389E02DC1
:1018D0009301B601CE010995E881F9810088F1896B
:1018E000E02D9401A501B601CE010995C60CD71CC7
:1018F000B60161507109E881F9810088F189E02D14
:101900009401A501CE010995E881F9810688F7893E
:10191000E02DCE01DF91CF911F910F91FF90EF90BD
:10192000DF90CF90BF90AF909F908F907F906F90FF
:1019300009946F927F928F929F92AF92BF92CF92B3
:10194000DF92EF92FF920F931F93CF93DF935C018F
:10195000EB016A01490138018701DC01ED91FC913D
:101960006217730719F5641675062CF0962D872DEE
:101970003A01C92ED82E9601261937092F5F3F4FFD
:10198000048CF58DE02DA301BE01C5010995DF9101
:10199000CF911F910F91FF90EF90DF90CF90BF906C
:1019A000AF909F908F907F906F9008954615570548
:1019B00091F42617370724F0892D4B01C22FD82F19
:1019C0009E01281939092F5F3F4F068CF78DE02DB6
:1019D000A601B401DACF0284F385E02D0995D50183
:1019E000ED91FC910488F589E02D83019401A60115
:1019F000BE01C5010995D501ED91FC910688F789D5
:101A0000E02DC501DF91CF911F910F91FF90EF90D5
:101A1000DF90CF90BF90AF909F908F907F906F900E
:101A20000994EF92FF920F931F93DC011A960D9188
:101A30001C911B9718962D913C911997ED91FC9153
:101A400000A0F1A1E02D7B0150E040E070E060E0FB
:101A500009951F910F91FF90EF9008954F925F921B
:101A60006F927F928F929F92AF92BF92CF92DF92AE
:101A7000EF92FF920F931F93CF93DF936C012B0193
:101A80005A0139014801DC01ED91FC910284F38592
:101A9000E02D0995E201640C751CD601ED91FC91D5
:101AA000C615D7055CF40088F189E02D8701940103
:101AB000A501BE01C60109952196EFCF0688F789D9
:101AC000E02DC601DF91CF911F910F91FF90EF9014
:101AD000DF90CF90BF90AF909F908F907F906F904E
:101AE0005F904F9009948F929F92AF92BF92CF9246
:101AF000DF92EF92FF920F931F93CF93DF93EC014E
:101B00005B014A016901E881F9810284F385E02DD6
:101B1000099595012C0D3D1D21503109E881F98170
:101B20000488F589E02D78018401A401B501CE0176
:101B30000995E881F9810688F789E02DCE01DF91CA
:101B4000CF911F910F91FF90EF90DF90CF90BF90BA
:101B5000AF909F908F9009948F929F92AF92BF9277
:101B6000CF92DF92EF92FF920F931F93CF93DF9369
:101B7000EC015B014A0169017801E881F981028485
:101B8000F385E02D0995C80CD91C86010150110977
:101B9000E881F9810488F589E02D9501A401B5015A
:101BA000CE010995E881F9810688F789E02DCE01FB
:101BB000DF91CF911F910F91FF90EF90DF90CF9029
:101BC000BF90AF909F908F900994EF92FF920F93E8
:101BD0001F93DC01ED91FC9100A0F1A1E02D09958E
:101BE0001F910F91FF90EF9008950F931F93DC01C9
:101BF000ED91FC91068CF78DE02D09951F910F91C9
:101C000008950F931F93DC01ED91FC91048CF58DE9
:101C1000E02D09951F910F910895DC01ED91FC9144
:101C20000084F185E02D09943F924F925F926F926C
:101C30007F928F929F92AF92BF92CF92DF92EF925C
:101C4000FF920F931F93CF93DF935C017B014A01B7
:101C50006901390187E0680E711C93E075946794FF
:101C60009A95E1F72B01400E511E10E000E0312C57
:101C7000D0E0C0E0CE0187709927330C892B59F44E
:101C8000FE0183E0F595E7958A95E1F7E00FF11FF6
:101C9000E80DF91D349037FE0AC021E030E0A701BD
:101CA000B5016C0F7D1F81ED92E00E940D0E219613
:101CB000CC16DD06F9F68FEFE81AF80A060D171DA7
:101CC000E414F504A9F6DF91CF911F910F91FF90D5
:101CD000EF90DF90CF90BF90AF909F908F907F90CC
:101CE0006F905F904F903F9008952F923F924F9248
:101CF0005F926F927F928F929F92AF92BF92CF929C
:101D0000DF92EF92FF920F931F93CF93DF9300D058
:101D100000D000D0CDB7DEB73C016A013E832D83F1
:101D2000FC82EB825801A41AB50AB7FE03C0B19435
:101D3000A194B1088D809E80861A970A97FE03C0F1
:101D40009194819491088A149B045CF0902F812FC8
:101D50000D811E819D838E839C2D8D2D6B01692F9E
:101D6000782F0C151D055CF09D818E817E836D831F
:101D7000692F782F902F812F8601C92ED82E16011A
:101D8000201A310A2B012D813E81421A530A57FE37
:101D900003C0519441945108710137FE03C03FEFD5
:101DA000E31AF30AF594E7948D819E8186179707CD
:101DB0005CF5A1E0B0E0BA83A983C016D1064CF16E
:101DC000D301ED91FC910484F585E02D2B813C81BC
:101DD000A8016D817E818A149B041CF04D815E8177
:101DE000B801C3010995E418F508F7FE0AC02D8172
:101DF0003E8189819A81280F391F3E832D83E20C11
:101E0000F31C0F5F1F4FD9CF2FEF3FEF3A8329838A
:101E1000D4CF26960FB6F894DEBF0FBECDBFDF91AC
:101E2000CF911F910F91FF90EF90DF90CF90BF90D7
:101E3000AF909F908F907F906F905F904F903F906A
:101E40002F900895EF92FF920F931F93CF93DF93FC
:101E5000EC01EC80FD806E157F050CF070C057FF23
:101E600004C0240F351F50E040E08E819F81FA01AD
:101E7000E20FF31F8E179F071CF49C01241B350BE8
:101E8000121613060CF05BC0922F842F8695869550
:101E900086958E9DD0018F9DB00D11246A0F7B1FFA
:101EA000AF8DB8A1A60FB71F477049F188E0841B1A
:101EB000482F682F70E0FB01E059FF4FE49128178D
:101EC00008F063C0621B71092FEF30E002C0359546
:101ED00027956A95E2F7E2230130110539F0B0F158
:101EE0000230110561F58C91E82702C08C91E82B36
:101EF000EC93941720F12C813D81A20FB31FE92FA1
:101F0000E41BE83078F00230110521F58E2F9C910A
:101F100090959C932C813D81A20FB31F88508830EF
:101F2000B0F7E770EE2359F0F0E0E859FF4FE49185
:101F300001301105F9F010F10230110519F1DF91AE
:101F4000CF911F910F91FF90EF900895E0958C91A4
:101F5000E823CECF81E00115110509F480E08195D9
:101F60009E2F8C932C813D81A20FB31F98509830E7
:101F7000C0F7D7CF8C91E82BEC93E1CFE0958C9113
:101F8000E823FACF8C91E827F7CF0130110509F447
:101F9000ADCFE0F20230110509F4A5CFAE0DBF1DA3
:101FA000AECF0F931F93CF93DF9377FF04C0260F1D
:101FB000371F70E060E0DC011496CD91DC91FB01ED
:101FC000E20FF31FCE17DF071CF49E01261B370B11
:101FD000121613064CF5FA0157FD3796A3E0F59556
:101FE000E795AA95E1F7EC9FD001ED9FB00DFC9F1E
:101FF000B00D11246A0F7B1FDC015F96ED91FC91FF
:10200000E60FF71F4770552781E090E001C0880F69
:102010004A95EAF7482F0130110559F0A8F02E0F24
:102020003F1F02301105E1F0DF91CF911F910F9119
:1020300008952E0F3F1FE217F307B1F38191DF01DF
:102040001197842B8C93F7CF80952E0F3F1FE217AB
:10205000F30751F39191DF01119798239C93F7CFE8
:10206000E217F30709F38191DF01119784278C931D
:10207000F7CF0F931F93FA01DC0156964C915697B8
:102080004230E9F04330A1F1413061F514964D91B1
:102090005C91DA01AE1BBF0BFD01E21BF30B77FD78
:1020A0000BC0DC0116964D915C916417750724F402
:1020B000AB01BF010E94D10F1F910F91089514969B
:1020C0004D915C91DA01A61BB70BBD0161507109FE
:1020D000DC0116964D915C91DA01AE1BBF0BFD0140
:1020E000E21BF30B77FDE8CFAF010E94220FE4CF94
:1020F00016964D915C91DA01A61BB70BBD0161509C
:102100007109CDCF0F931F93FA01DC0156964C91C4
:1021100056974230A9F0433091F1413019F51496A9
:102120004D915C91DA01AE1BBF0BFD013197F7FDBC
:1021300004C0AB01BF010E94220F1F910F910895AF
:1021400014964D915C91DA01A61BB70BBD01DC0121
:1021500016964D915C91DA01AE1BBF0BFD013197D4
:10216000621B730BF7FDE9CFDC0116964D915C9174
:10217000E417F50714F7AF010E94D10FDECF1696D2
:102180004D915C91DA01A61BB70BBD01621B730B6D
:10219000CECFFC0177FD64C08085918568177907F3
:1021A0000CF05EC057FD5CC08285938548175907C7
:1021B0000CF056C086898230B1F0833029F181302D
:1021C00041F484819581841B950BAB01BC01615066
:1021D00071092130310509F108F443C0223031057D
:1021E00009F463C0089584819581DC01A61BB70BB7
:1021F000BD016150710986819781DC01A41BB50B7B
:10220000AD0141505109E5CF86819781861B970B1F
:10221000BA01AC0141505109DCCFCA0157FD079604
:10222000A3E095958795AA95E1F7A481B5818A9F4A
:1022300090018B9F300D9A9F300D1124620F731FF8
:10224000078CF0A1E02DE60FF71F4770552721E01E
:1022500030E001C0220F4A95EAF78081822B80830B
:102260000895CA0157FD079633E0959587953A95ED
:10227000E1F7A481B5818A9F90018B9F300D9A9FD1
:10228000300D1124620F731F078CF0A1E02DE60FB3
:10229000F71F4770552781E090E001C0880F4A95ED
:1022A000EAF7809590818923DACFCA0157FD079616
:1022B00023E0959587952A95E1F7A481B5818A9FBA
:1022C00090018B9F300D9A9F300D1124620F731F68
:1022D000078CF0A1E02DE60FF71F4770552721E08E
:1022E00030E001C0220F4A95EAF780818227B7CFFC
:1022F00008958EBD00000DB407FEFDCF8EB5089584
:10230000FF920F931F93CF93DF93F82ED92FC62FF1
:102310008091EE029091EF02009709F452C0209153
:10232000F20231E030932702209326021092250218
:1023300010922402DC01ED91FC910190F081E02DDE
:1023400060E009950F2D1D2FD1E0FF24F394C150BB
:102350008091EE029091EF02CF3F61F1D032C8F050
:102360000E9446088091EE029091EF022091F202C5
:10237000F092270220932602109225021092240246
:10238000DC01ED91FC910190F081E02D60E0099578
:10239000D1E08091EE029091EF02F8016491DC01AE
:1023A000ED91FC910190F081E02D0995DF5F0F5FC9
:1023B0001F4FCDCFDF91CF911F910F91FF900C94C4
:1023C0004608E091FE02F091FF02908180910403A3
:1023D0008095892380830F2D1D2FC15008F438C0AC
:1023E000F80184912091EC023091ED02232B29F029
:1023F0000E9479110F5F1F4FF0CF28E030E040E8D6
:10240000E091FA02F091FB0290910203582F5423BD
:10241000D9F05081952B9083E091FC02F091FD0260
:10242000908150910303952B9083E091FC02F091F1
:10243000FD025081909103039095952390834695DA
:1024400021503109E9F6D6CF508190959523E3CFFD
:10245000DF91CF911F910F91FF9008951F93CF931C
:10246000DF93EC018D8D9E8D009721F1162F29A110
:1024700031E0309327022093260210922502109219
:102480002402DC01ED91FC910190F081E02D60E0EF
:1024900009958D8D9E8DDC01ED91FC910190F0816F
:1024A000E02D612F09958D8D9E8DDF91CF911F912C
:1024B0000C944608ADA5BEA59C918BA98095892357
:1024C0008C938B8D9C8D892B31F0862FDF91CF9152
:1024D0001F910C94791128E030E080E8A9A5BAA5F5
:1024E00099A9462F4823C1F04C91942B9C93ABA5FE
:1024F000BCA59C914AA9942B9C93ABA5BCA54C91DF
:102500009AA9909594239C9386952150310931F78F
:10251000DF91CF911F9108954C9190959423E6CF30
:102520008CBD9DBD08951F93CF93DF93EC01162FB3
:102530008D8D9E8D892BB1F12DA93EA94FA958AD46
:1025400060E074E284EF90E00E94261A2051310985
:102550004109510956954795379527952093B8001D
:1025600066EA111167EACE010E942E128D8D9E8DB2
:10257000892B41F129AD3AAD4BAD5CAD60E074E221
:1025800084EF90E00E94261A205131094109510937
:1025900056954795379527952093B800DF91CF91B1
:1025A0001F9108958B8D9C8D892B21F08EAD9FAD51
:1025B0000E949012EFA5F8A990818CA9809589239B
:1025C0008083CECFEFA5F8A980819CA9892B808339
:1025D000E5CF089590E080E008952091D7023091F2
:1025E000D802C901079697FD079623E09595879530
:1025F0002A95E1F72091D5023091D602829FA00161
:10260000839F500D929F500D112470E060E08091E7
:10261000F0029091F1020C94781B0F931F93CF93CB
:102620008091F0029091F102892B09F10E94ED1244
:102630002091D7023091D8028091D5029091D60294
:1026400021323105C4F5B9016052710977FF02C02A
:102650006F5F7F4F759567958357910997FD019639
:1026600000E210E023E730E04DED55E037C0209167
:10267000D7023091D802C901079697FD0796B3E0BB
:1026800095958795BA95E1F72091D5023091D602BC
:10269000AC01429FC001439F900D529F900D1124A9
:1026A0000E944E1A9093F1028093F002892B09F058
:1026B000BDCF80E0FFC0B9016054710977FF02C04F
:1026C0006F5F7F4F759567958255910997FD0196CC
:1026D00000E410E022E530E04DEB57E0959587955A
:1026E0000E94140E82E08093F3028091EE0290919A
:1026F000EF02892B09F4E2C08DE38093F20210927D
:1027000023021092220210922502109224020E94AB
:10271000820789EA95E090932102809320028AEA59
:1027200095E090931F0280931E028091F90287FD2D
:102730001DC00E94890561E08091F9020E94B806DF
:1027400061E070E080E090E00E94290760E0809105
:10275000F9020E94B8066AE070E080E090E00E9412
:10276000290761E08091F9020E94B8068091EE028B
:102770009091EF02892B09F458C120910603309102
:102780000703409108035091090360E074E284EF6D
:1027900090E00E94261A20513109410951095695AD
:1027A0004795379527952093B80064E089ED95E02B
:1027B0000E9480116091D702615081ED92E00E94E9
:1027C0002E1264E085ED95E00E9480118091F30265
:1027D00064E1813009F460E181ED92E00E942E1203
:1027E00064E081ED95E00E9480118FE880930E03F4
:1027F0008091D5029091D6028038910509F02EC1C2
:102800008091D7029091D8028034910509F036C1A9
:102810008091F302813009F41FC18FEC80930E0385
:10282000C2E16AED81ED92E00E942E126C2F81EDE3
:1028300092E00E942E1261E881ED92E00E942E1239
:1028400060910E0381ED92E00E942E1269ED81ED00
:1028500092E00E942E128091F30261EF813009F420
:1028600062E281ED92E00E942E1266E08BEC95E030
:102870000E9480118091EE029091EF02892B09F461
:1028800001C120910A0330910B0340910C03509138
:102890000D0360E074E284EF90E00E94261A20515C
:1028A0003109410951095695479537952795209348
:1028B000B80081E0CF911F910F9108958091F702A8
:1028C0000E9489058091F8020E9489058091F70293
:1028D000082E000C990BFC01EF56F54FE491F0E047
:1028E000EE0FFF1FE358F54F259134913093FF020F
:1028F0002093FE02FC01EB55F54FE491E0930403B5
:102900008091F802082E000C990BFC01EF56F54F50
:10291000E491F0E0EE0FFF1FE358F54FA591B4915D
:10292000B0930103A0930003FC01EB55F54FE49134
:10293000E09305038C91E82BEC938091EC0290914D
:10294000ED02892B89F1CFB7F89480911D02811196
:1029500024C0EBE9FAE08491EFEAFAE09491E82FE1
:10296000F0E0EE0FFF1FE957F54FA591B491EC9100
:10297000E92321F461E08AE00E94B8068AE00E941F
:1029800089058CB580618CBD8CB580648CBD8DE073
:102990000E9489058BE00E94890580911D028F5F4E
:1029A00080931D02CFBFC1CE8091F5020E948905A0
:1029B0008091F6020E9489058091F502082E000C94
:1029C000990BFC01EF56F54FE491F0E0EE0FFF1F7D
:1029D000E358F54F259134913093FB022093FA028E
:1029E000FC01EB55F54FE491E09302038091F60270
:1029F000082E000C990BFC01EF56F54FE491F0E026
:102A0000EE0FFF1FE358F54FA591B491B093FD026F
:102A1000A093FC02FC01EB55F54FE491E093030316
:102A20008C91E095E823EC9380CE8091EC0290911C
:102A3000ED02892B31F080910F03909110030E94D9
:102A40009012E0910003F0910103908180910503C1
:102A5000809589238083A9CE8FE9E0CE80369105C9
:102A600069F48091D7029091D802409739F480910F
:102A7000F302813029F08FEA80930E03C2E0D1CEB9
:102A800080E1FACFE0910003F09101038081909101
:102A90000503892B80830DCF0E94731BFB010190DE
:102AA0000020E9F73197AF01461B570BDC01ED9190
:102AB000FC910280F381E02D09940F931F93CF9333
:102AC000DF938C01D0E0C0E0F801EC0FFD1F6491B2
:102AD000662341F088E292E00E944B06892B11F0B8
:102AE0002196F2CF66E571E088E292E00E944E15F1
:102AF0008C0F9D1FDF91CF911F910F91089585ED50
:102B00008093BC008091A5019091A601A091A7019E
:102B1000B091A8010796A11DB11D23E0B695A79518
:102B2000979587952A95D1F72091BC0024FD03C085
:102B30001092EE0108954091A5015091A601609177
:102B4000A7017091A801452B462B472B69F30097ED
:102B5000A105B10541F025E32A95F1F700000197A1
:102B6000A109B109E1CF8091A4010C94A0071F92A3
:102B70000F920FB60F9211242F933F934F935F93B1
:102B80006F937F938F939F93AF93BF93EF93FF9335
:102B900088E292E00E942906FF91EF91BF91AF91E8
:102BA0009F918F917F916F915F914F913F912F9165
:102BB0000F900FBE0F901F9018951F920F920FB697
:102BC0000F9211242F938F939F93EF93FF93E09194
:102BD0003802F09139028081E0913E02F0913F028B
:102BE00082FD1BC09081809141028F5F8F73209185
:102BF0004202821741F0E0914102F0E0E85DFD4FB2
:102C0000958F80934102FF91EF919F918F912F912A
:102C10000F900FBE0F901F9018958081F4CF1F92D8
:102C20000F920FB60F9211242F933F938F939F9380
:102C3000AF93BF938091150290911602A091170255
:102C4000B09118023091140223E0230F2D3758F56C
:102C50000196A11DB11D209314028093150290933B
:102C60001602A0931702B093180280911902909156
:102C70001A02A0911B02B0911C020196A11DB11D68
:102C80008093190290931A02A0931B02B0931C0226
:102C9000BF91AF919F918F913F912F910F900FBE58
:102CA0000F901F90189526E8230F0296A11DB11DC5
:102CB000D2CF1F920F920FB60F9211242F933F93F2
:102CC0004F935F936F937F938F939F93AF93BF9334
:102CD000EF93FF938091B900887F803609F44AC052
:102CE000F0F5883209F4A7C018F5803109F49BC0CB
:102CF000B8F4882309F4F9C0883009F494C0FF912E
:102D0000EF91BF91AF919F918F917F916F915F9163
:102D10004F913F912F910F900FBE0F901F901895DC
:102D2000883109F488C0803251F78093ED0114C0D6
:102D3000803409F49DC040F48033B9F38833F9F648
:102D40008093ED0185ECB0C0803509F485C08835ED
:102D500009F496C0883499F60E947F15D0CF88393F
:102D600009F48CC038F5883729F050F4883611F012
:102D7000803729F683E08093EE011092EC0157C072
:102D8000883809F47BC0803919F0803809F0B7CF52
:102D90008091EC01803208F071C0E091EC0181E09B
:102DA0008E0F8093EC018091BB00F0E0E453FE4F66
:102DB00080833DC0803B39F0E0F4803A09F479C06B
:102DC000883A09F09CCF84E08093EE011092CB0109
:102DD0001092CA01E0912002F091210209958091A0
:102DE000CA0181110FC081E08093CA011092AA012B
:102DF00009C0803C09F4A6CF883C09F4A3CF883BE6
:102E000009F07DCFE091CB0181E08E0F8093CB0163
:102E1000F0E0E655FE4F80818093BB009091CB019E
:102E20008091CA0129C0809113028093BB0085EC78
:102E30008093BC0064CF9091120280911102981788
:102E400058F5E091120281E08E0F80931202F0E0BB
:102E5000EF50FE4F8081E9CFE091120281E08E0FAA
:102E6000809312028091BB00F0E0EF50FE4F808310
:102E700090911202809111029817C8F285E8D8CF7C
:102E8000E091120281E08E0F809312028091BB00CC
:102E9000F0E0EF50FE4F80838091F00181115CCF14
:102EA00081E08093EF0184EA8093BC001092EE01F0
:102EB00026CF85EC8093BC001092EE018091EC014E
:102EC000803230F4E091EC01F0E0E453FE4F1082E8
:102ED0006091EC0170E0E0911E02F0911F028CEC19
:102EE00091E009951092EC010ACF1092ED0134CFD8
:102EF000E8E2F2E01382128248EE53E060E070E014
:102F000044835583668377838AE091E0918380834D
:102F100085EC90E09587848784EC90E0978786879E
:102F200080EC90E0918B808B81EC90E0938B828B96
:102F300082EC90E0958B848B86EC90E0978B868B6F
:102F4000118E128E138E148EA5ECB2E013961C9285
:102F50001E92129714964D935D936D937C931797E1
:102F60008CE191E011969C938E93E1EDF2E0138257
:102F7000128220E830E03583248380E490E0978358
:102F800086833187208793878287168A15861486E1
:102F90001786168681E0858B848B2FEF3FEF338B6E
:102FA000228B318B208B878B108E128E118E148E7C
:102FB000138EB68FA58F10A2178E8FEF84A385A3D3
:102FC00086A387A384E080A780E89AE1A6E0B0E02A
:102FD00085AB96ABA7ABB0AF80EA96E8A1E0B0E0D6
:102FE00081AF92AFA3AFB4AF80E586AF17AE8EE2EC
:102FF00091E0918380830895789484B5826084BD44
:1030000084B5816084BD85B5826085BD85B58160EC
:1030100085BD80916E00816080936E00109281006A
:103020008091810082608093810080918100816025
:1030300080938100809180008160809380008091E6
:10304000B10084608093B1008091B0008160809372
:10305000B00080917A00846080937A0080917A0039
:10306000826080937A0080917A00816080937A00F8
:1030700080917A00806880937A001092C100E0917C
:103080003802F091390282E08083E0913402F091BD
:1030900035021082E0913602F09137028FEC808386
:1030A00010924002E0913C02F0913D0286E0808364
:1030B000E0913A02F0913B02808180618083E0914F
:1030C0003A02F0913B02808188608083E0913A026D
:1030D000F0913B02808180688083E0913A02F09118
:1030E0003B0280818F7D80830E940D130E940D130F
:1030F000811105C086EA95E00E945D15FFCF81E948
:1031000095E00E945D158091EE029091EF02892B6F
:1031100009F493C0209106033091070340910803FE
:103120005091090360E074E284EF90E00E94261A57
:1031300020513109410951095695479537952795F1
:103140002093B80065E08CE895E00E9480116091C2
:10315000D502615081ED92E00E942E122091D7029B
:103160003091D802C901079697FD079673E09595AF
:1031700087957A95E1F72091D5023091D602829F0A
:103180008001839F100D929F100D1124C091F002B9
:10319000D091F1028091EE029091EF020C0F1D1F71
:1031A000009709F4F8C02091F20231E03093270231
:1031B000209326021092250210922402DC01ED9148
:1031C000FC910190F081E02D60E40995FF24F394D7
:1031D000DD24D3948091EE029091EF020C171D072D
:1031E00009F442C0BFE1BF15D0F40E9446088091A7
:1031F000EE029091EF022091F202D09227022093EA
:1032000026021092250210922402DC01ED91FC911D
:103210000190F081E02D60E40995FF24F394809102
:10322000EE029091EF026991DC01ED91FC91019029
:10323000F081E02D0995F394CDCF8091EC0290912F
:10324000ED02892B31F080910F03909110030E94C1
:103250009012E0910003F0910103908180910503A9
:103260008095892380836ECF0E9446088091EE026C
:103270009091EF02892B09F4D0C020910A0330917C
:103280000B0340910C0350910D0360E074E284EF56
:1032900090E00E94261A20513109410951095695A2
:1032A0004795379527952093B80060ED77E080E04B
:1032B00090E00E9429070E94ED12CAE0D0E0CC24E1
:1032C000C394D12CBB24B39420E0822E20E0922E14
:1032D00081EC95E00E945D150E94ED12D093DE0214
:1032E000C093DD02D093E002C093DF02D092E402EB
:1032F000C092E302D092E202C092E102B092E502F3
:10330000B092E60269E571E081ED92E00E944E150F
:1033100066E571E081ED92E00E944E15EE24E394A3
:10332000F12C0FE310E030E020E050E040E070E0EE
:1033300060E081ED92E00E94990C10E000E02FE740
:1033400030E050E040E070E060E081ED92E00E940B
:10335000990C0FE310E02FE730E050E040E06FE71A
:1033600070E081ED92E00E94990C2FE730E04FE38E
:1033700050E070E060E081ED92E00E94990C8114D1
:10338000910409F4A5CF0E941506882309F4A0CF63
:103390000E9400009DCFE091FE02F091FF0280812B
:1033A00090910403892B80830C171D0709F45ECFCD
:1033B00089912091EC023091ED02232B19F00E94AB
:1033C0007911F2CF28E030E040E8E091FA02F09184
:1033D000FB0290910203542F5823D9F05081952B72
:1033E0009083E091FC02F091FD02908150910303E3
:1033F000952B9083E091FC02F091FD025081909119
:103400000303909595239083469521503109E9F661
:10341000CBCF508190959523E3CFE0910003F091BD
:103420000103808190910503892B80833ECF8EE23A
:1034300091E09093D2028093D1028091F00290911A
:10344000F102009711F00C94EA1A0895A1E21A2EE5
:10345000AA1BBB1BFD010DC0AA1FBB1FEE1FFF1F38
:10346000A217B307E407F50720F0A21BB30BE40B88
:10347000F50B661F771F881F991F1A9469F76095CF
:103480007095809590959B01AC01BD01CF01089589
:10349000EE0FFF1F0590F491E02D09940F931F93F9
:1034A000CF93DF938230910510F482E090E0E091B9
:1034B0001303F091140330E020E0B0E0A0E0309777
:1034C00099F42115310509F44AC0281B390B243021
:1034D0003105D8F58A819B816115710589F1FB0160
:1034E00093838283FE0111C0408151810281138147
:1034F00048175907E0F04817590799F4109761F0F9
:1035000012960C93129713961C933296CF01DF916B
:10351000CF911F910F9108950093130310931403FB
:10352000F4CF2115310551F04217530738F0A901A6
:10353000DB019A01BD01DF01F801C1CFEF01F9CF35
:103540009093140380931303CDCFFE01E20FF31F7A
:10355000819391932250310939832883D7CF2091C9
:10356000110330911203232B41F420910201309179
:103570000301309312032093110320910001309135
:1035800001012115310541F42DB73EB740910401E9
:1035900050910501241B350BE0911103F0911203AA
:1035A000E217F307A0F42E1B3F0B2817390778F01A
:1035B000AC014E5F5F4F2417350748F04E0F5F1F79
:1035C0005093120340931103819391939FCFF0E0A6
:1035D000E0E09CCFCF93DF930097E9F0FC013297B6
:1035E00013821282A0911303B0911403ED0130E015
:1035F00020E01097A1F420813181820F931F209148
:103600001103309112032817390709F061C0F093B4
:103610001203E0931103DF91CF910895EA01CE17D1
:10362000DF07E8F54A815B819E0141155105B1F73D
:10363000E901FB83EA8349915991C40FD51FEC1727
:10364000FD0761F4808191810296840F951FE90145
:1036500099838883828193819B838A83F0E0E0E071
:1036600012968D919C9113970097B9F52D913C91ED
:103670001197CD010296820F931F20911103309173
:1036800012032817390739F6309751F510921403B1
:1036900010921303B0931203A0931103BCCFD383F2
:1036A000C28340815181840F951FC817D90761F4E7
:1036B0004E5F5F4F88819981480F591F5183408326
:1036C0008A819B81938382832115310509F0B0CFD4
:1036D000F0931403E09313039ECFFD01DC01C0CFF0
:1036E00013821282D7CF81E090E0F8940C947F1B74
:1036F000DC0101C06D9341505040E0F7089515E0A2
:10370000CEE5D5E004C0FE010E94481A2196CF35CF
:08371000D107C9F7F894FFCFBF
:10371800000015038000000000004B06AB05D8052B
:1037280098060906E705FB05000000001708EA07E8
:10373800EA12A805E307D007C10700000000680BDC
:10374800AB05EA12E912C910A8050D0EE50D010E28
:10375800F50D750EA8052E099312391082102E0D3D
:10376800110D990C3A0C0D0A00486F6C61204D75CB
:043778006E646F000C
:00000001FF
